{
    "contractName": "RBXS",
    "abi": [
        {
            "inputs": [],
            "stateMutability": "nonpayable",
            "type": "constructor"
        },
        {
            "anonymous": false,
            "inputs": [
                {
                    "indexed": true,
                    "internalType": "address",
                    "name": "owner",
                    "type": "address"
                },
                {
                    "indexed": true,
                    "internalType": "address",
                    "name": "spender",
                    "type": "address"
                },
                {
                    "indexed": false,
                    "internalType": "uint256",
                    "name": "value",
                    "type": "uint256"
                }
            ],
            "name": "Approval",
            "type": "event"
        },
        {
            "anonymous": false,
            "inputs": [
                {
                    "indexed": true,
                    "internalType": "bytes32",
                    "name": "role",
                    "type": "bytes32"
                },
                {
                    "indexed": true,
                    "internalType": "bytes32",
                    "name": "previousAdminRole",
                    "type": "bytes32"
                },
                {
                    "indexed": true,
                    "internalType": "bytes32",
                    "name": "newAdminRole",
                    "type": "bytes32"
                }
            ],
            "name": "RoleAdminChanged",
            "type": "event"
        },
        {
            "anonymous": false,
            "inputs": [
                {
                    "indexed": true,
                    "internalType": "bytes32",
                    "name": "role",
                    "type": "bytes32"
                },
                {
                    "indexed": true,
                    "internalType": "address",
                    "name": "account",
                    "type": "address"
                },
                {
                    "indexed": true,
                    "internalType": "address",
                    "name": "sender",
                    "type": "address"
                }
            ],
            "name": "RoleGranted",
            "type": "event"
        },
        {
            "anonymous": false,
            "inputs": [
                {
                    "indexed": true,
                    "internalType": "bytes32",
                    "name": "role",
                    "type": "bytes32"
                },
                {
                    "indexed": true,
                    "internalType": "address",
                    "name": "account",
                    "type": "address"
                },
                {
                    "indexed": true,
                    "internalType": "address",
                    "name": "sender",
                    "type": "address"
                }
            ],
            "name": "RoleRevoked",
            "type": "event"
        },
        {
            "anonymous": false,
            "inputs": [
                {
                    "indexed": true,
                    "internalType": "address",
                    "name": "pair",
                    "type": "address"
                },
                {
                    "indexed": true,
                    "internalType": "address",
                    "name": "router",
                    "type": "address"
                }
            ],
            "name": "SetPair",
            "type": "event"
        },
        {
            "anonymous": false,
            "inputs": [
                {
                    "indexed": true,
                    "internalType": "address",
                    "name": "from",
                    "type": "address"
                },
                {
                    "indexed": true,
                    "internalType": "address",
                    "name": "to",
                    "type": "address"
                },
                {
                    "indexed": false,
                    "internalType": "uint256",
                    "name": "value",
                    "type": "uint256"
                }
            ],
            "name": "Transfer",
            "type": "event"
        },
        {
            "anonymous": false,
            "inputs": [
                {
                    "indexed": true,
                    "internalType": "address",
                    "name": "account",
                    "type": "address"
                },
                {
                    "indexed": false,
                    "internalType": "bool",
                    "name": "isExcluded",
                    "type": "bool"
                }
            ],
            "name": "WhitelistAddress",
            "type": "event"
        },
        {
            "inputs": [],
            "name": "AUX_ADMIN",
            "outputs": [
                {
                    "internalType": "bytes32",
                    "name": "",
                    "type": "bytes32"
                }
            ],
            "stateMutability": "view",
            "type": "function"
        },
        {
            "inputs": [],
            "name": "DEFAULT_ADMIN_ROLE",
            "outputs": [
                {
                    "internalType": "bytes32",
                    "name": "",
                    "type": "bytes32"
                }
            ],
            "stateMutability": "view",
            "type": "function"
        },
        {
            "inputs": [],
            "name": "DIVISOR",
            "outputs": [
                {
                    "internalType": "uint256",
                    "name": "",
                    "type": "uint256"
                }
            ],
            "stateMutability": "view",
            "type": "function"
        },
        {
            "inputs": [
                {
                    "internalType": "address",
                    "name": "pair",
                    "type": "address"
                },
                {
                    "internalType": "address",
                    "name": "router",
                    "type": "address"
                },
                {
                    "internalType": "address",
                    "name": "base",
                    "type": "address"
                }
            ],
            "name": "_addPair",
            "outputs": [],
            "stateMutability": "nonpayable",
            "type": "function"
        },
        {
            "inputs": [
                {
                    "internalType": "address",
                    "name": "",
                    "type": "address"
                }
            ],
            "name": "_routerPairs",
            "outputs": [
                {
                    "internalType": "address",
                    "name": "pair",
                    "type": "address"
                },
                {
                    "internalType": "address",
                    "name": "router",
                    "type": "address"
                },
                {
                    "internalType": "address",
                    "name": "base",
                    "type": "address"
                }
            ],
            "stateMutability": "view",
            "type": "function"
        },
        {
            "inputs": [
                {
                    "internalType": "address",
                    "name": "owner",
                    "type": "address"
                },
                {
                    "internalType": "address",
                    "name": "spender",
                    "type": "address"
                }
            ],
            "name": "allowance",
            "outputs": [
                {
                    "internalType": "uint256",
                    "name": "",
                    "type": "uint256"
                }
            ],
            "stateMutability": "view",
            "type": "function"
        },
        {
            "inputs": [
                {
                    "internalType": "address",
                    "name": "spender",
                    "type": "address"
                },
                {
                    "internalType": "uint256",
                    "name": "amount",
                    "type": "uint256"
                }
            ],
            "name": "approve",
            "outputs": [
                {
                    "internalType": "bool",
                    "name": "",
                    "type": "bool"
                }
            ],
            "stateMutability": "nonpayable",
            "type": "function"
        },
        {
            "inputs": [
                {
                    "internalType": "address",
                    "name": "account",
                    "type": "address"
                }
            ],
            "name": "balanceOf",
            "outputs": [
                {
                    "internalType": "uint256",
                    "name": "",
                    "type": "uint256"
                }
            ],
            "stateMutability": "view",
            "type": "function"
        },
        {
            "inputs": [
                {
                    "internalType": "address",
                    "name": "account",
                    "type": "address"
                },
                {
                    "internalType": "bool",
                    "name": "value",
                    "type": "bool"
                }
            ],
            "name": "blacklistAddress",
            "outputs": [],
            "stateMutability": "nonpayable",
            "type": "function"
        },
        {
            "inputs": [
                {
                    "internalType": "uint256",
                    "name": "amount",
                    "type": "uint256"
                }
            ],
            "name": "burn",
            "outputs": [],
            "stateMutability": "nonpayable",
            "type": "function"
        },
        {
            "inputs": [
                {
                    "internalType": "address",
                    "name": "account",
                    "type": "address"
                },
                {
                    "internalType": "uint256",
                    "name": "amount",
                    "type": "uint256"
                }
            ],
            "name": "burnFrom",
            "outputs": [],
            "stateMutability": "nonpayable",
            "type": "function"
        },
        {
            "inputs": [],
            "name": "decimals",
            "outputs": [
                {
                    "internalType": "uint8",
                    "name": "",
                    "type": "uint8"
                }
            ],
            "stateMutability": "view",
            "type": "function"
        },
        {
            "inputs": [
                {
                    "internalType": "address",
                    "name": "spender",
                    "type": "address"
                },
                {
                    "internalType": "uint256",
                    "name": "subtractedValue",
                    "type": "uint256"
                }
            ],
            "name": "decreaseAllowance",
            "outputs": [
                {
                    "internalType": "bool",
                    "name": "",
                    "type": "bool"
                }
            ],
            "stateMutability": "nonpayable",
            "type": "function"
        },
        {
            "inputs": [],
            "name": "elysium",
            "outputs": [
                {
                    "internalType": "uint256",
                    "name": "",
                    "type": "uint256"
                }
            ],
            "stateMutability": "view",
            "type": "function"
        },
        {
            "inputs": [],
            "name": "fundingEnabled",
            "outputs": [
                {
                    "internalType": "bool",
                    "name": "",
                    "type": "bool"
                }
            ],
            "stateMutability": "view",
            "type": "function"
        },
        {
            "inputs": [],
            "name": "fundingFee",
            "outputs": [
                {
                    "internalType": "uint256",
                    "name": "",
                    "type": "uint256"
                }
            ],
            "stateMutability": "view",
            "type": "function"
        },
        {
            "inputs": [],
            "name": "fundingWallet",
            "outputs": [
                {
                    "internalType": "address payable",
                    "name": "",
                    "type": "address"
                }
            ],
            "stateMutability": "view",
            "type": "function"
        },
        {
            "inputs": [
                {
                    "internalType": "bytes32",
                    "name": "role",
                    "type": "bytes32"
                }
            ],
            "name": "getRoleAdmin",
            "outputs": [
                {
                    "internalType": "bytes32",
                    "name": "",
                    "type": "bytes32"
                }
            ],
            "stateMutability": "view",
            "type": "function"
        },
        {
            "inputs": [
                {
                    "internalType": "bytes32",
                    "name": "role",
                    "type": "bytes32"
                },
                {
                    "internalType": "address",
                    "name": "account",
                    "type": "address"
                }
            ],
            "name": "grantRole",
            "outputs": [],
            "stateMutability": "nonpayable",
            "type": "function"
        },
        {
            "inputs": [
                {
                    "internalType": "bytes32",
                    "name": "role",
                    "type": "bytes32"
                },
                {
                    "internalType": "address",
                    "name": "account",
                    "type": "address"
                }
            ],
            "name": "hasRole",
            "outputs": [
                {
                    "internalType": "bool",
                    "name": "",
                    "type": "bool"
                }
            ],
            "stateMutability": "view",
            "type": "function"
        },
        {
            "inputs": [
                {
                    "internalType": "address",
                    "name": "spender",
                    "type": "address"
                },
                {
                    "internalType": "uint256",
                    "name": "addedValue",
                    "type": "uint256"
                }
            ],
            "name": "increaseAllowance",
            "outputs": [
                {
                    "internalType": "bool",
                    "name": "",
                    "type": "bool"
                }
            ],
            "stateMutability": "nonpayable",
            "type": "function"
        },
        {
            "inputs": [],
            "name": "initLimit",
            "outputs": [
                {
                    "internalType": "uint256",
                    "name": "",
                    "type": "uint256"
                }
            ],
            "stateMutability": "view",
            "type": "function"
        },
        {
            "inputs": [],
            "name": "name",
            "outputs": [
                {
                    "internalType": "string",
                    "name": "",
                    "type": "string"
                }
            ],
            "stateMutability": "view",
            "type": "function"
        },
        {
            "inputs": [],
            "name": "preTrade",
            "outputs": [
                {
                    "internalType": "bool",
                    "name": "",
                    "type": "bool"
                }
            ],
            "stateMutability": "view",
            "type": "function"
        },
        {
            "inputs": [
                {
                    "internalType": "bytes32",
                    "name": "role",
                    "type": "bytes32"
                },
                {
                    "internalType": "address",
                    "name": "account",
                    "type": "address"
                }
            ],
            "name": "renounceRole",
            "outputs": [],
            "stateMutability": "nonpayable",
            "type": "function"
        },
        {
            "inputs": [
                {
                    "internalType": "address payable",
                    "name": "recipient",
                    "type": "address"
                }
            ],
            "name": "rescueEth",
            "outputs": [],
            "stateMutability": "nonpayable",
            "type": "function"
        },
        {
            "inputs": [
                {
                    "internalType": "address",
                    "name": "recipient",
                    "type": "address"
                },
                {
                    "internalType": "address",
                    "name": "token",
                    "type": "address"
                },
                {
                    "internalType": "uint256",
                    "name": "amount",
                    "type": "uint256"
                }
            ],
            "name": "rescueTokens",
            "outputs": [
                {
                    "internalType": "bool",
                    "name": "",
                    "type": "bool"
                }
            ],
            "stateMutability": "nonpayable",
            "type": "function"
        },
        {
            "inputs": [
                {
                    "internalType": "address",
                    "name": "recipient",
                    "type": "address"
                },
                {
                    "internalType": "contract IERC20",
                    "name": "token",
                    "type": "address"
                },
                {
                    "internalType": "uint256",
                    "name": "amount",
                    "type": "uint256"
                }
            ],
            "name": "rescueTokensSafe",
            "outputs": [
                {
                    "internalType": "bool",
                    "name": "",
                    "type": "bool"
                }
            ],
            "stateMutability": "nonpayable",
            "type": "function"
        },
        {
            "inputs": [
                {
                    "internalType": "bytes32",
                    "name": "role",
                    "type": "bytes32"
                },
                {
                    "internalType": "address",
                    "name": "account",
                    "type": "address"
                }
            ],
            "name": "revokeRole",
            "outputs": [],
            "stateMutability": "nonpayable",
            "type": "function"
        },
        {
            "inputs": [
                {
                    "internalType": "uint256",
                    "name": "_elysium",
                    "type": "uint256"
                }
            ],
            "name": "setElysium",
            "outputs": [],
            "stateMutability": "nonpayable",
            "type": "function"
        },
        {
            "inputs": [
                {
                    "internalType": "uint256",
                    "name": "_fundingFee",
                    "type": "uint256"
                }
            ],
            "name": "setFundingFee",
            "outputs": [],
            "stateMutability": "nonpayable",
            "type": "function"
        },
        {
            "inputs": [
                {
                    "internalType": "bool",
                    "name": "_setting",
                    "type": "bool"
                }
            ],
            "name": "setFundingSells",
            "outputs": [],
            "stateMutability": "nonpayable",
            "type": "function"
        },
        {
            "inputs": [
                {
                    "internalType": "address payable",
                    "name": "_wallet",
                    "type": "address"
                }
            ],
            "name": "setFundingWallet",
            "outputs": [],
            "stateMutability": "nonpayable",
            "type": "function"
        },
        {
            "inputs": [
                {
                    "internalType": "bool",
                    "name": "_preTrade",
                    "type": "bool"
                }
            ],
            "name": "setPretrade",
            "outputs": [],
            "stateMutability": "nonpayable",
            "type": "function"
        },
        {
            "inputs": [
                {
                    "internalType": "uint256",
                    "name": "_tokenThreshold",
                    "type": "uint256"
                }
            ],
            "name": "setTokenThreshold",
            "outputs": [],
            "stateMutability": "nonpayable",
            "type": "function"
        },
        {
            "inputs": [
                {
                    "internalType": "bytes4",
                    "name": "interfaceId",
                    "type": "bytes4"
                }
            ],
            "name": "supportsInterface",
            "outputs": [
                {
                    "internalType": "bool",
                    "name": "",
                    "type": "bool"
                }
            ],
            "stateMutability": "view",
            "type": "function"
        },
        {
            "inputs": [],
            "name": "symbol",
            "outputs": [
                {
                    "internalType": "string",
                    "name": "",
                    "type": "string"
                }
            ],
            "stateMutability": "view",
            "type": "function"
        },
        {
            "inputs": [],
            "name": "tokenThreshold",
            "outputs": [
                {
                    "internalType": "uint256",
                    "name": "",
                    "type": "uint256"
                }
            ],
            "stateMutability": "view",
            "type": "function"
        },
        {
            "inputs": [],
            "name": "totalSupply",
            "outputs": [
                {
                    "internalType": "uint256",
                    "name": "",
                    "type": "uint256"
                }
            ],
            "stateMutability": "view",
            "type": "function"
        },
        {
            "inputs": [
                {
                    "internalType": "address",
                    "name": "recipient",
                    "type": "address"
                },
                {
                    "internalType": "uint256",
                    "name": "amount",
                    "type": "uint256"
                }
            ],
            "name": "transfer",
            "outputs": [
                {
                    "internalType": "bool",
                    "name": "",
                    "type": "bool"
                }
            ],
            "stateMutability": "nonpayable",
            "type": "function"
        },
        {
            "inputs": [
                {
                    "internalType": "address",
                    "name": "sender",
                    "type": "address"
                },
                {
                    "internalType": "address",
                    "name": "recipient",
                    "type": "address"
                },
                {
                    "internalType": "uint256",
                    "name": "amount",
                    "type": "uint256"
                }
            ],
            "name": "transferFrom",
            "outputs": [
                {
                    "internalType": "bool",
                    "name": "",
                    "type": "bool"
                }
            ],
            "stateMutability": "nonpayable",
            "type": "function"
        },
        {
            "inputs": [
                {
                    "internalType": "address",
                    "name": "account",
                    "type": "address"
                },
                {
                    "internalType": "bool",
                    "name": "setting",
                    "type": "bool"
                }
            ],
            "name": "whitelistAddress",
            "outputs": [],
            "stateMutability": "nonpayable",
            "type": "function"
        }
    ],
    "bytecode": "60806040526103e8600a5560126200001990600a62000662565b620000279061c3506200067a565b600c556019600d556200003d6012600a62000662565b6200004b906127106200067a565b600e55600f805461ffff60a81b191661010160a81b1790553480156200007057600080fd5b5060408051808201825260048152635242585360e01b60208083019182528351808501909452600a84526952425853616d7572616960b01b908401528151919291620000bf91600391620004a9565b508051620000d5906004906020840190620004a9565b50620000e79150600090503362000160565b6200010260008051602062002d078339815191523362000160565b6200012b33620001156012600a62000662565b62000125906305f5e1006200067a565b62000170565b600f80546001600160a01b031916339081179091556200014d90600162000187565b6200015a30600162000187565b620006f4565b6200016c8282620002d8565b5050565b6200016c82826200036260201b620010271760201c565b620001946000336200045f565b80620001b65750620001b660008051602062002d07833981519152336200045f565b620002085760405162461bcd60e51b815260206004820152601760248201527f496e73756666696369656e742070726976696c6567657300000000000000000060448201526064015b60405180910390fd5b6001600160a01b03821660009081526006602052604090205460ff1615158115151415620002795760405162461bcd60e51b815260206004820152601f60248201527f5242583a204163636f756e7420616c72656164792061742073657474696e67006044820152606401620001ff565b6001600160a01b038216600081815260066020908152604091829020805460ff191685151590811790915591519182527f33e0bf3ce98fac4118d5a0a8fe49e83b6acdfdef32871c9eca20e1528d7701ba910160405180910390a25050565b620002e482826200045f565b6200016c5760008281526005602090815260408083206001600160a01b03851684529091529020805460ff191660011790556200031e3390565b6001600160a01b0316816001600160a01b0316837f2f8788117e7eff1d82e926ec794901d17c78024a50270940304540a733656f0d60405160405180910390a45050565b6001600160a01b038216620003ba5760405162461bcd60e51b815260206004820152601f60248201527f45524332303a206d696e7420746f20746865207a65726f2061646472657373006044820152606401620001ff565b620003c8600083836200048c565b8060026000828254620003dc91906200069c565b90915550506001600160a01b038216600090815260208190526040812080548392906200040b9084906200069c565b90915550506040518181526001600160a01b038316906000907fddf252ad1be2c89b69c2b068fc378daa952ba7f163c4a11628f55a4df523b3ef9060200160405180910390a36200016c600083836200048c565b60008281526005602090815260408083206001600160a01b038516845290915290205460ff165b92915050565b620004a4838383620004a460201b620008131760201c565b505050565b828054620004b790620006b7565b90600052602060002090601f016020900481019282620004db576000855562000526565b82601f10620004f657805160ff191683800117855562000526565b8280016001018555821562000526579182015b828111156200052657825182559160200191906001019062000509565b506200053492915062000538565b5090565b5b8082111562000534576000815560010162000539565b634e487b7160e01b600052601160045260246000fd5b600181815b80851115620005a65781600019048211156200058a576200058a6200054f565b808516156200059857918102915b93841c93908002906200056a565b509250929050565b600082620005bf5750600162000486565b81620005ce5750600062000486565b8160018114620005e75760028114620005f25762000612565b600191505062000486565b60ff8411156200060657620006066200054f565b50506001821b62000486565b5060208310610133831016604e8410600b841016171562000637575081810a62000486565b62000643838362000565565b80600019048211156200065a576200065a6200054f565b029392505050565b60006200067360ff841683620005ae565b9392505050565b60008160001904831182151516156200069757620006976200054f565b500290565b60008219821115620006b257620006b26200054f565b500190565b600181811c90821680620006cc57607f821691505b60208210811415620006ee57634e487b7160e01b600052602260045260246000fd5b50919050565b61260380620007046000396000f3fe608060405234801561001057600080fd5b506004361061025e5760003560e01c806366692ff011610146578063a9059cbb116100c3578063ceacd45111610087578063ceacd4511461055c578063d547741f1461056f578063dd62ed3e14610582578063e10e95c9146105bb578063eca2b4d3146105cf578063f33c86cd146105e257600080fd5b8063a9059cbb146104aa578063ae306319146104bd578063b3f579f5146104d0578063b9a45aac14610536578063cea9d26f1461054957600080fd5b806391d148541161010a57806391d148541461046157806395d89b41146104745780639819d24e1461047c578063a217fddf1461048f578063a457c2d71461049757600080fd5b806366692ff01461040c57806370a082311461041557806379cc6790146104285780637cf2bd301461043b57806387bde5491461044e57600080fd5b8063313ce567116101df5780633c4b40b8116101a35780633c4b40b814610396578063412131fa146103c157806342966c68146103d4578063455a4396146103e757806359a7cb79146103fa5780635d16e1201461040357600080fd5b8063313ce567146103455780633410fe6e1461035457806336568abe1461035d57806339509351146103705780633b1ab44c1461038357600080fd5b806318160ddd1161022657806318160ddd146102df57806323b872dd146102e7578063248a9ca3146102fa5780632eee963b1461031d5780632f2ff15d1461033257600080fd5b8063017b0a301461026357806301ffc9a71461027857806304876746146102a057806306fdde03146102b7578063095ea7b3146102cc575b600080fd5b610276610271366004612101565b6105f6565b005b61028b61028636600461211e565b610662565b60405190151581526020015b60405180910390f35b6102a9600c5481565b604051908152602001610297565b6102bf610699565b6040516102979190612174565b61028b6102da3660046121bc565b61072b565b6002546102a9565b61028b6102f53660046121e8565b610741565b6102a9610308366004612229565b60009081526005602052604090206001015490565b6102a96000805160206125ae83398151915281565b610276610340366004612242565b6107ed565b60405160128152602001610297565b6102a9600a5481565b61027661036b366004612242565b610818565b61028b61037e3660046121bc565b610896565b610276610391366004612272565b6108d2565b600f546103a9906001600160a01b031681565b6040516001600160a01b039091168152602001610297565b6102766103cf36600461228f565b61092e565b6102766103e2366004612229565b6109ee565b6102766103f53660046122da565b6109fb565b6102a9600b5481565b6102a9600d5481565b6102a9600e5481565b6102a9610423366004612272565b610a4d565b6102766104363660046121bc565b610a6b565b610276610449366004612229565b610aec565b61027661045c366004612229565b610b36565b61028b61046f366004612242565b610b62565b6102bf610b8d565b61027661048a366004612272565b610b9c565b6102a9600081565b61028b6104a53660046121bc565b610be3565b61028b6104b83660046121bc565b610c7c565b6102766104cb366004612229565b610c89565b61050c6104de366004612272565b6009602052600090815260409020805460018201546002909201546001600160a01b03918216928216911683565b604080516001600160a01b0394851681529284166020840152921691810191909152606001610297565b6102766105443660046122da565b610cd3565b61028b6105573660046121e8565b610de6565b61028b61056a3660046121e8565b610ef7565b61027661057d366004612242565b610f9e565b6102a9610590366004612308565b6001600160a01b03918216600090815260016020908152604080832093909416825291909152205490565b600f5461028b90600160a81b900460ff1681565b6102766105dd366004612101565b610fc4565b600f5461028b90600160b01b900460ff1681565b610601600033610b62565b8061061f575061061f6000805160206125ae83398151915233610b62565b6106445760405162461bcd60e51b815260040161063b90612336565b60405180910390fd5b600f8054911515600160a81b0260ff60a81b19909216919091179055565b60006001600160e01b03198216637965db0b60e01b148061069357506301ffc9a760e01b6001600160e01b03198316145b92915050565b6060600380546106a89061236d565b80601f01602080910402602001604051908101604052809291908181526020018280546106d49061236d565b80156107215780601f106106f657610100808354040283529160200191610721565b820191906000526020600020905b81548152906001019060200180831161070457829003601f168201915b5050505050905090565b6000610738338484611106565b50600192915050565b600061074e84848461122a565b6001600160a01b0384166000908152600160209081526040808320338452909152902054828110156107d35760405162461bcd60e51b815260206004820152602860248201527f45524332303a207472616e7366657220616d6f756e74206578636565647320616044820152676c6c6f77616e636560c01b606482015260840161063b565b6107e08533858403611106565b60019150505b9392505050565b60008281526005602052604090206001015461080981336115dd565b6108138383611641565b505050565b6001600160a01b03811633146108885760405162461bcd60e51b815260206004820152602f60248201527f416363657373436f6e74726f6c3a2063616e206f6e6c792072656e6f756e636560448201526e103937b632b9903337b91039b2b63360891b606482015260840161063b565b61089282826116c7565b5050565b3360008181526001602090815260408083206001600160a01b038716845290915281205490916107389185906108cd9086906123be565b611106565b6108dd600033610b62565b6108f95760405162461bcd60e51b815260040161063b90612336565b6040516001600160a01b038216904780156108fc02916000818181858888f19350505050158015610892573d6000803e3d6000fd5b610939600033610b62565b8061095757506109576000805160206125ae83398151915233610b62565b6109735760405162461bcd60e51b815260040161063b90612336565b6001600160a01b0383811660008181526009602052604080822080546001600160a01b03199081168517825560018201805482168988169081179091556002909201805490911695871695909517909455517fd482e95abb3d8f5eaf8f07dbd4c204ea55842bacc8cf5d530aa104716551e2169190a3505050565b6109f8338261172e565b50565b610a06600033610b62565b610a225760405162461bcd60e51b815260040161063b90612336565b6001600160a01b03919091166000908152600760205260409020805460ff1916911515919091179055565b6001600160a01b038116600090815260208190526040812054610693565b6000610a778333610590565b905081811015610ad55760405162461bcd60e51b8152602060048201526024808201527f45524332303a206275726e20616d6f756e74206578636565647320616c6c6f77604482015263616e636560e01b606482015260840161063b565b610ae28333848403611106565b610813838361172e565b610af7600033610b62565b80610b155750610b156000805160206125ae83398151915233610b62565b610b315760405162461bcd60e51b815260040161063b90612336565b600b55565b610b41600033610b62565b610b5d5760405162461bcd60e51b815260040161063b90612336565b600e55565b60009182526005602090815260408084206001600160a01b0393909316845291905290205460ff1690565b6060600480546106a89061236d565b6000610ba881336115dd565b50600f80546001600160a01b039092166001600160a01b0319909216821790556000908152600660205260409020805460ff19166001179055565b3360009081526001602090815260408083206001600160a01b038616845290915281205482811015610c655760405162461bcd60e51b815260206004820152602560248201527f45524332303a2064656372656173656420616c6c6f77616e63652062656c6f77604482015264207a65726f60d81b606482015260840161063b565b610c723385858403611106565b5060019392505050565b600061073833848461122a565b610c94600033610b62565b80610cb25750610cb26000805160206125ae83398151915233610b62565b610cce5760405162461bcd60e51b815260040161063b90612336565b600d55565b610cde600033610b62565b80610cfc5750610cfc6000805160206125ae83398151915233610b62565b610d185760405162461bcd60e51b815260040161063b90612336565b6001600160a01b03821660009081526006602052604090205460ff1615158115151415610d875760405162461bcd60e51b815260206004820152601f60248201527f5242583a204163636f756e7420616c72656164792061742073657474696e6700604482015260640161063b565b6001600160a01b038216600081815260066020908152604091829020805460ff191685151590811790915591519182527f33e0bf3ce98fac4118d5a0a8fe49e83b6acdfdef32871c9eca20e1528d7701ba910160405180910390a25050565b6000610df28133610b62565b610e0e5760405162461bcd60e51b815260040161063b90612336565b6001600160a01b038084166000818152600960205260409020549091161415610e795760405162461bcd60e51b815260206004820152601d60248201527f43616e2774207472616e73666572206f7574204c5020746f6b656e7321000000604482015260640161063b565b60405163a9059cbb60e01b81526001600160a01b0385811660048301526024820184905284169063a9059cbb906044016020604051808303816000875af1158015610ec8573d6000803e3d6000fd5b505050506040513d601f19601f82011682018060405250810190610eec91906123d6565b506001949350505050565b6000610f038133610b62565b610f1f5760405162461bcd60e51b815260040161063b90612336565b6001600160a01b038084166000818152600960205260409020549091161415610f8a5760405162461bcd60e51b815260206004820152601d60248201527f43616e2774207472616e73666572206f7574204c5020746f6b656e7321000000604482015260640161063b565b610c726001600160a01b0384168584611738565b600082815260056020526040902060010154610fba81336115dd565b61081383836116c7565b610fcf600033610b62565b80610fed5750610fed6000805160206125ae83398151915233610b62565b6110095760405162461bcd60e51b815260040161063b90612336565b600f8054911515600160b01b0260ff60b01b19909216919091179055565b6001600160a01b03821661107d5760405162461bcd60e51b815260206004820152601f60248201527f45524332303a206d696e7420746f20746865207a65726f206164647265737300604482015260640161063b565b806002600082825461108f91906123be565b90915550506001600160a01b038216600090815260208190526040812080548392906110bc9084906123be565b90915550506040518181526001600160a01b038316906000907fddf252ad1be2c89b69c2b068fc378daa952ba7f163c4a11628f55a4df523b3ef9060200160405180910390a35050565b6001600160a01b0383166111685760405162461bcd60e51b8152602060048201526024808201527f45524332303a20617070726f76652066726f6d20746865207a65726f206164646044820152637265737360e01b606482015260840161063b565b6001600160a01b0382166111c95760405162461bcd60e51b815260206004820152602260248201527f45524332303a20617070726f766520746f20746865207a65726f206164647265604482015261737360f01b606482015260840161063b565b6001600160a01b0383811660008181526001602090815260408083209487168084529482529182902085905590518481527f8c5be1e5ebec7d5bd14f71427d1e84f3dd0314c0f7b2291e5b200ac8c7c3b925910160405180910390a3505050565b600f54600160b01b900460ff161561128f576001600160a01b03831660009081526006602052604090205460ff1661128f5760405162461bcd60e51b8152602060048201526008602482015267507265547261646560c01b604482015260640161063b565b6001600160a01b03831660009081526007602052604090205460ff161580156112d157506001600160a01b03821660009081526007602052604090205460ff16155b61131d5760405162461bcd60e51b815260206004820152601960248201527f426c61636b6c6973746564206164647265737320676976656e00000000000000604482015260640161063b565b600061132830610a4d565b90506000600e5482101561133c5781611340565b600e545b9050600b54421115801561136e57506001600160a01b03808616600081815260096020526040902054909116145b801561139357506001600160a01b03841660009081526006602052604090205460ff16155b1561145c576001600160a01b03841660009081526008602052604090205442906113bf9061012c6123be565b106114015760405162461bcd60e51b815260206004820152601260248201527110dbdbdb191bdddb881a5b881959999958dd60721b604482015260640161063b565b600c548311156114405760405162461bcd60e51b815260206004820152600a602482015269125b9a5d081b1a5b5a5d60b21b604482015260640161063b565b6001600160a01b03841660009081526008602052604090204290555b6001600160a01b0380851660008181526009602052604090205490911614801561149f57506001600160a01b03851660009081526006602052604090205460ff16155b156114e857600b5442116114e85760405162461bcd60e51b815260206004820152601060248201526f24b734ba34b0b61031b7b7b61037b33360811b604482015260640161063b565b600f54600160a81b900460ff16801561150b5750600f54600160a01b900460ff16155b801561153157506001600160a01b03808516600081815260096020526040902054909116145b801561155657506001600160a01b03851660009081526006602052604090205460ff16155b801561157b57506001600160a01b03841660009081526006602052604090205460ff16155b156115cb576000600a54600d548561159391906123f3565b61159d9190612412565b90506115a98185612434565b93506115b686308361178a565b6115c96115c383836123be565b8661195a565b505b6115d685858561178a565b5050505050565b6115e78282610b62565b610892576115ff816001600160a01b03166014611bbf565b61160a836020611bbf565b60405160200161161b92919061244b565b60408051601f198184030181529082905262461bcd60e51b825261063b91600401612174565b61164b8282610b62565b6108925760008281526005602090815260408083206001600160a01b03851684529091529020805460ff191660011790556116833390565b6001600160a01b0316816001600160a01b0316837f2f8788117e7eff1d82e926ec794901d17c78024a50270940304540a733656f0d60405160405180910390a45050565b6116d18282610b62565b156108925760008281526005602090815260408083206001600160a01b0385168085529252808320805460ff1916905551339285917ff6391f5c32d9c69d2a47ea670b442974b53935d1edc7fd64eb21e047a839171b9190a45050565b6108928282611d5b565b604080516001600160a01b038416602482015260448082018490528251808303909101815260649091019091526020810180516001600160e01b031663a9059cbb60e01b179052610813908490611ea9565b6001600160a01b0383166117ee5760405162461bcd60e51b815260206004820152602560248201527f45524332303a207472616e736665722066726f6d20746865207a65726f206164604482015264647265737360d81b606482015260840161063b565b6001600160a01b0382166118505760405162461bcd60e51b815260206004820152602360248201527f45524332303a207472616e7366657220746f20746865207a65726f206164647260448201526265737360e81b606482015260840161063b565b6001600160a01b038316600090815260208190526040902054818110156118c85760405162461bcd60e51b815260206004820152602660248201527f45524332303a207472616e7366657220616d6f756e7420657863656564732062604482015265616c616e636560d01b606482015260840161063b565b6001600160a01b038085166000908152602081905260408082208585039055918516815290812080548492906118ff9084906123be565b92505081905550826001600160a01b0316846001600160a01b03167fddf252ad1be2c89b69c2b068fc378daa952ba7f163c4a11628f55a4df523b3ef8460405161194b91815260200190565b60405180910390a35b50505050565b600f8054600160a01b60ff60a01b199091161790556001600160a01b038181166000908152600960209081526040808320815160608082018452825487168252600183015487169482018590526002928301549096168184018190528351838152968701909352949193919081602001602082028036833701905050905030816000815181106119ec576119ec6124d6565b60200260200101906001600160a01b031690816001600160a01b0316815250508281600181518110611a2057611a206124d6565b60200260200101906001600160a01b031690816001600160a01b031681525050611a4b308388611106565b816001600160a01b031663ad5c46486040518163ffffffff1660e01b8152600401602060405180830381865afa158015611a89573d6000803e3d6000fd5b505050506040513d601f19601f82011682018060405250810190611aad91906124ec565b6001600160a01b031684604001516001600160a01b03161415611b3c57600f5460405163791ac94760e01b81526001600160a01b038481169263791ac94792611b05928b926000928892909116904290600401612509565b600060405180830381600087803b158015611b1f57600080fd5b505af1158015611b33573d6000803e3d6000fd5b50505050611baa565b600f54604051635c11d79560e01b81526001600160a01b0384811692635c11d79592611b77928b926000928892909116904290600401612509565b600060405180830381600087803b158015611b9157600080fd5b505af1158015611ba5573d6000803e3d6000fd5b505050505b5050600f805460ff60a01b1916905550505050565b60606000611bce8360026123f3565b611bd99060026123be565b67ffffffffffffffff811115611bf157611bf16124c0565b6040519080825280601f01601f191660200182016040528015611c1b576020820181803683370190505b509050600360fc1b81600081518110611c3657611c366124d6565b60200101906001600160f81b031916908160001a905350600f60fb1b81600181518110611c6557611c656124d6565b60200101906001600160f81b031916908160001a9053506000611c898460026123f3565b611c949060016123be565b90505b6001811115611d0c576f181899199a1a9b1b9c1cb0b131b232b360811b85600f1660108110611cc857611cc86124d6565b1a60f81b828281518110611cde57611cde6124d6565b60200101906001600160f81b031916908160001a90535060049490941c93611d058161257a565b9050611c97565b5083156107e65760405162461bcd60e51b815260206004820181905260248201527f537472696e67733a20686578206c656e67746820696e73756666696369656e74604482015260640161063b565b6001600160a01b038216611dbb5760405162461bcd60e51b815260206004820152602160248201527f45524332303a206275726e2066726f6d20746865207a65726f206164647265736044820152607360f81b606482015260840161063b565b6001600160a01b03821660009081526020819052604090205481811015611e2f5760405162461bcd60e51b815260206004820152602260248201527f45524332303a206275726e20616d6f756e7420657863656564732062616c616e604482015261636560f01b606482015260840161063b565b6001600160a01b0383166000908152602081905260408120838303905560028054849290611e5e908490612434565b90915550506040518281526000906001600160a01b038516907fddf252ad1be2c89b69c2b068fc378daa952ba7f163c4a11628f55a4df523b3ef9060200160405180910390a3505050565b6000611efe826040518060400160405280602081526020017f5361666545524332303a206c6f772d6c6576656c2063616c6c206661696c6564815250856001600160a01b0316611f7b9092919063ffffffff16565b8051909150156108135780806020019051810190611f1c91906123d6565b6108135760405162461bcd60e51b815260206004820152602a60248201527f5361666545524332303a204552433230206f7065726174696f6e20646964206e6044820152691bdd081cdd58d8d9595960b21b606482015260840161063b565b6060611f8a8484600085611f92565b949350505050565b606082471015611ff35760405162461bcd60e51b815260206004820152602660248201527f416464726573733a20696e73756666696369656e742062616c616e636520666f6044820152651c8818d85b1b60d21b606482015260840161063b565b843b6120415760405162461bcd60e51b815260206004820152601d60248201527f416464726573733a2063616c6c20746f206e6f6e2d636f6e7472616374000000604482015260640161063b565b600080866001600160a01b0316858760405161205d9190612591565b60006040518083038185875af1925050503d806000811461209a576040519150601f19603f3d011682016040523d82523d6000602084013e61209f565b606091505b50915091506120af8282866120ba565b979650505050505050565b606083156120c95750816107e6565b8251156120d95782518084602001fd5b8160405162461bcd60e51b815260040161063b9190612174565b80151581146109f857600080fd5b60006020828403121561211357600080fd5b81356107e6816120f3565b60006020828403121561213057600080fd5b81356001600160e01b0319811681146107e657600080fd5b60005b8381101561216357818101518382015260200161214b565b838111156119545750506000910152565b6020815260008251806020840152612193816040850160208701612148565b601f01601f19169190910160400192915050565b6001600160a01b03811681146109f857600080fd5b600080604083850312156121cf57600080fd5b82356121da816121a7565b946020939093013593505050565b6000806000606084860312156121fd57600080fd5b8335612208816121a7565b92506020840135612218816121a7565b929592945050506040919091013590565b60006020828403121561223b57600080fd5b5035919050565b6000806040838503121561225557600080fd5b823591506020830135612267816121a7565b809150509250929050565b60006020828403121561228457600080fd5b81356107e6816121a7565b6000806000606084860312156122a457600080fd5b83356122af816121a7565b925060208401356122bf816121a7565b915060408401356122cf816121a7565b809150509250925092565b600080604083850312156122ed57600080fd5b82356122f8816121a7565b91506020830135612267816120f3565b6000806040838503121561231b57600080fd5b8235612326816121a7565b91506020830135612267816121a7565b60208082526017908201527f496e73756666696369656e742070726976696c65676573000000000000000000604082015260600190565b600181811c9082168061238157607f821691505b602082108114156123a257634e487b7160e01b600052602260045260246000fd5b50919050565b634e487b7160e01b600052601160045260246000fd5b600082198211156123d1576123d16123a8565b500190565b6000602082840312156123e857600080fd5b81516107e6816120f3565b600081600019048311821515161561240d5761240d6123a8565b500290565b60008261242f57634e487b7160e01b600052601260045260246000fd5b500490565b600082821015612446576124466123a8565b500390565b7f416363657373436f6e74726f6c3a206163636f756e7420000000000000000000815260008351612483816017850160208801612148565b7001034b99036b4b9b9b4b733903937b6329607d1b60179184019182015283516124b4816028840160208801612148565b01602801949350505050565b634e487b7160e01b600052604160045260246000fd5b634e487b7160e01b600052603260045260246000fd5b6000602082840312156124fe57600080fd5b81516107e6816121a7565b600060a082018783526020878185015260a0604085015281875180845260c086019150828901935060005b818110156125595784516001600160a01b031683529383019391830191600101612534565b50506001600160a01b03969096166060850152505050608001529392505050565b600081612589576125896123a8565b506000190190565b600082516125a3818460208701612148565b919091019291505056feb73fa0cb2416690a6547825d5ccf9cedab6a4cd328635df925e1dfd86cf94c21a2646970667358221220e45c65628f260f2f93ac8d8f1b9fb2125548e8da254a9490ce3d33d00c4484fd64736f6c634300080b0033b73fa0cb2416690a6547825d5ccf9cedab6a4cd328635df925e1dfd86cf94c21",
    "sourcePath": "/Users/sycore/Documents/proyecto_equis/rbx/products/rbxsamurai/contracts/RBXS.bsc.sol",
    "compiler": {
        "name": "solc",
        "version": "0.8.11+commit.d7f03943"
    },
    "functionHashes": {
        "AUX_ADMIN()": "2eee963b",
        "DEFAULT_ADMIN_ROLE()": "a217fddf",
        "DIVISOR()": "3410fe6e",
        "_addPair(address,address,address)": "412131fa",
        "_routerPairs(address)": "b3f579f5",
        "allowance(address,address)": "dd62ed3e",
        "approve(address,uint256)": "095ea7b3",
        "balanceOf(address)": "70a08231",
        "blacklistAddress(address,bool)": "455a4396",
        "burn(uint256)": "42966c68",
        "burnFrom(address,uint256)": "79cc6790",
        "decimals()": "313ce567",
        "decreaseAllowance(address,uint256)": "a457c2d7",
        "elysium()": "59a7cb79",
        "fundingEnabled()": "e10e95c9",
        "fundingFee()": "5d16e120",
        "fundingWallet()": "3c4b40b8",
        "getRoleAdmin(bytes32)": "248a9ca3",
        "grantRole(bytes32,address)": "2f2ff15d",
        "hasRole(bytes32,address)": "91d14854",
        "increaseAllowance(address,uint256)": "39509351",
        "initLimit()": "04876746",
        "name()": "06fdde03",
        "preTrade()": "f33c86cd",
        "renounceRole(bytes32,address)": "36568abe",
        "rescueEth(address)": "3b1ab44c",
        "rescueTokens(address,address,uint256)": "cea9d26f",
        "rescueTokensSafe(address,address,uint256)": "ceacd451",
        "revokeRole(bytes32,address)": "d547741f",
        "setElysium(uint256)": "7cf2bd30",
        "setFundingFee(uint256)": "ae306319",
        "setFundingSells(bool)": "017b0a30",
        "setFundingWallet(address)": "9819d24e",
        "setPretrade(bool)": "eca2b4d3",
        "setTokenThreshold(uint256)": "87bde549",
        "supportsInterface(bytes4)": "01ffc9a7",
        "symbol()": "95d89b41",
        "tokenThreshold()": "66692ff0",
        "totalSupply()": "18160ddd",
        "transfer(address,uint256)": "a9059cbb",
        "transferFrom(address,address,uint256)": "23b872dd",
        "whitelistAddress(address,bool)": "b9a45aac"
    },
    "gasEstimates": {
        "creation": {
            "codeDepositCost": "1946200",
            "executionCost": "infinite",
            "totalCost": "infinite"
        },
        "external": {
            "AUX_ADMIN()": "infinite",
            "DEFAULT_ADMIN_ROLE()": "306",
            "DIVISOR()": "2363",
            "_addPair(address,address,address)": "infinite",
            "_routerPairs(address)": "6943",
            "allowance(address,address)": "infinite",
            "approve(address,uint256)": "24714",
            "balanceOf(address)": "2636",
            "blacklistAddress(address,bool)": "infinite",
            "burn(uint256)": "50972",
            "burnFrom(address,uint256)": "77612",
            "decimals()": "223",
            "decreaseAllowance(address,uint256)": "27004",
            "elysium()": "2428",
            "fundingEnabled()": "2426",
            "fundingFee()": "2450",
            "fundingWallet()": "2382",
            "getRoleAdmin(bytes32)": "2534",
            "grantRole(bytes32,address)": "infinite",
            "hasRole(bytes32,address)": "2698",
            "increaseAllowance(address,uint256)": "27029",
            "initLimit()": "2386",
            "name()": "infinite",
            "preTrade()": "2470",
            "renounceRole(bytes32,address)": "29090",
            "rescueEth(address)": "infinite",
            "rescueTokens(address,address,uint256)": "infinite",
            "rescueTokensSafe(address,address,uint256)": "infinite",
            "revokeRole(bytes32,address)": "infinite",
            "setElysium(uint256)": "infinite",
            "setFundingFee(uint256)": "infinite",
            "setFundingSells(bool)": "infinite",
            "setFundingWallet(address)": "infinite",
            "setPretrade(bool)": "infinite",
            "setTokenThreshold(uint256)": "24775",
            "supportsInterface(bytes4)": "495",
            "symbol()": "infinite",
            "tokenThreshold()": "2341",
            "totalSupply()": "2338",
            "transfer(address,uint256)": "infinite",
            "transferFrom(address,address,uint256)": "infinite",
            "whitelistAddress(address,bool)": "infinite"
        },
        "internal": {
            "_afterTokenTransfer(address,address,uint256)": "infinite",
            "_beforeTokenTransfer(address,address,uint256)": "infinite",
            "_burn(address,uint256)": "infinite",
            "_mint(address,uint256)": "infinite",
            "_transfer(address,address,uint256)": "infinite",
            "swapTokensByPair(uint256,address)": "infinite"
        }
    }
}