{
    "contractName": "RBXS",
    "abi": [
        {
            "inputs": [
                {
                    "internalType": "address",
                    "name": "_previousToken",
                    "type": "address"
                }
            ],
            "stateMutability": "nonpayable",
            "type": "constructor"
        },
        {
            "anonymous": false,
            "inputs": [
                {
                    "indexed": true,
                    "internalType": "address",
                    "name": "owner",
                    "type": "address"
                },
                {
                    "indexed": true,
                    "internalType": "address",
                    "name": "spender",
                    "type": "address"
                },
                {
                    "indexed": false,
                    "internalType": "uint256",
                    "name": "value",
                    "type": "uint256"
                }
            ],
            "name": "Approval",
            "type": "event"
        },
        {
            "anonymous": false,
            "inputs": [
                {
                    "indexed": true,
                    "internalType": "bytes32",
                    "name": "role",
                    "type": "bytes32"
                },
                {
                    "indexed": true,
                    "internalType": "bytes32",
                    "name": "previousAdminRole",
                    "type": "bytes32"
                },
                {
                    "indexed": true,
                    "internalType": "bytes32",
                    "name": "newAdminRole",
                    "type": "bytes32"
                }
            ],
            "name": "RoleAdminChanged",
            "type": "event"
        },
        {
            "anonymous": false,
            "inputs": [
                {
                    "indexed": true,
                    "internalType": "bytes32",
                    "name": "role",
                    "type": "bytes32"
                },
                {
                    "indexed": true,
                    "internalType": "address",
                    "name": "account",
                    "type": "address"
                },
                {
                    "indexed": true,
                    "internalType": "address",
                    "name": "sender",
                    "type": "address"
                }
            ],
            "name": "RoleGranted",
            "type": "event"
        },
        {
            "anonymous": false,
            "inputs": [
                {
                    "indexed": true,
                    "internalType": "bytes32",
                    "name": "role",
                    "type": "bytes32"
                },
                {
                    "indexed": true,
                    "internalType": "address",
                    "name": "account",
                    "type": "address"
                },
                {
                    "indexed": true,
                    "internalType": "address",
                    "name": "sender",
                    "type": "address"
                }
            ],
            "name": "RoleRevoked",
            "type": "event"
        },
        {
            "anonymous": false,
            "inputs": [
                {
                    "indexed": true,
                    "internalType": "address",
                    "name": "pair",
                    "type": "address"
                },
                {
                    "indexed": true,
                    "internalType": "address",
                    "name": "router",
                    "type": "address"
                }
            ],
            "name": "SetPair",
            "type": "event"
        },
        {
            "anonymous": false,
            "inputs": [
                {
                    "indexed": true,
                    "internalType": "address",
                    "name": "account",
                    "type": "address"
                },
                {
                    "indexed": true,
                    "internalType": "uint256",
                    "name": "amount",
                    "type": "uint256"
                }
            ],
            "name": "TokensMirrored",
            "type": "event"
        },
        {
            "anonymous": false,
            "inputs": [
                {
                    "indexed": true,
                    "internalType": "address",
                    "name": "from",
                    "type": "address"
                },
                {
                    "indexed": true,
                    "internalType": "address",
                    "name": "to",
                    "type": "address"
                },
                {
                    "indexed": false,
                    "internalType": "uint256",
                    "name": "value",
                    "type": "uint256"
                }
            ],
            "name": "Transfer",
            "type": "event"
        },
        {
            "anonymous": false,
            "inputs": [
                {
                    "indexed": true,
                    "internalType": "address",
                    "name": "account",
                    "type": "address"
                },
                {
                    "indexed": false,
                    "internalType": "bool",
                    "name": "isExcluded",
                    "type": "bool"
                }
            ],
            "name": "WhitelistAddress",
            "type": "event"
        },
        {
            "inputs": [],
            "name": "AUX_ADMIN",
            "outputs": [
                {
                    "internalType": "bytes32",
                    "name": "",
                    "type": "bytes32"
                }
            ],
            "stateMutability": "view",
            "type": "function"
        },
        {
            "inputs": [],
            "name": "DEFAULT_ADMIN_ROLE",
            "outputs": [
                {
                    "internalType": "bytes32",
                    "name": "",
                    "type": "bytes32"
                }
            ],
            "stateMutability": "view",
            "type": "function"
        },
        {
            "inputs": [],
            "name": "DIVISOR",
            "outputs": [
                {
                    "internalType": "uint256",
                    "name": "",
                    "type": "uint256"
                }
            ],
            "stateMutability": "view",
            "type": "function"
        },
        {
            "inputs": [
                {
                    "internalType": "address",
                    "name": "pair",
                    "type": "address"
                },
                {
                    "internalType": "address",
                    "name": "router",
                    "type": "address"
                },
                {
                    "internalType": "address",
                    "name": "base",
                    "type": "address"
                }
            ],
            "name": "_addPair",
            "outputs": [],
            "stateMutability": "nonpayable",
            "type": "function"
        },
        {
            "inputs": [
                {
                    "internalType": "address",
                    "name": "",
                    "type": "address"
                }
            ],
            "name": "_balances",
            "outputs": [
                {
                    "internalType": "uint256",
                    "name": "",
                    "type": "uint256"
                }
            ],
            "stateMutability": "view",
            "type": "function"
        },
        {
            "inputs": [
                {
                    "internalType": "address",
                    "name": "",
                    "type": "address"
                }
            ],
            "name": "_routerPairs",
            "outputs": [
                {
                    "internalType": "address",
                    "name": "pair",
                    "type": "address"
                },
                {
                    "internalType": "address",
                    "name": "router",
                    "type": "address"
                },
                {
                    "internalType": "address",
                    "name": "base",
                    "type": "address"
                }
            ],
            "stateMutability": "view",
            "type": "function"
        },
        {
            "inputs": [
                {
                    "internalType": "address",
                    "name": "owner",
                    "type": "address"
                },
                {
                    "internalType": "address",
                    "name": "spender",
                    "type": "address"
                }
            ],
            "name": "allowance",
            "outputs": [
                {
                    "internalType": "uint256",
                    "name": "",
                    "type": "uint256"
                }
            ],
            "stateMutability": "view",
            "type": "function"
        },
        {
            "inputs": [
                {
                    "internalType": "address",
                    "name": "spender",
                    "type": "address"
                },
                {
                    "internalType": "uint256",
                    "name": "amount",
                    "type": "uint256"
                }
            ],
            "name": "approve",
            "outputs": [
                {
                    "internalType": "bool",
                    "name": "",
                    "type": "bool"
                }
            ],
            "stateMutability": "nonpayable",
            "type": "function"
        },
        {
            "inputs": [
                {
                    "internalType": "address",
                    "name": "account",
                    "type": "address"
                }
            ],
            "name": "balanceOf",
            "outputs": [
                {
                    "internalType": "uint256",
                    "name": "",
                    "type": "uint256"
                }
            ],
            "stateMutability": "view",
            "type": "function"
        },
        {
            "inputs": [
                {
                    "internalType": "address",
                    "name": "account",
                    "type": "address"
                },
                {
                    "internalType": "bool",
                    "name": "value",
                    "type": "bool"
                }
            ],
            "name": "blacklistAddress",
            "outputs": [],
            "stateMutability": "nonpayable",
            "type": "function"
        },
        {
            "inputs": [
                {
                    "internalType": "uint256",
                    "name": "amount",
                    "type": "uint256"
                }
            ],
            "name": "burn",
            "outputs": [],
            "stateMutability": "nonpayable",
            "type": "function"
        },
        {
            "inputs": [
                {
                    "internalType": "address",
                    "name": "account",
                    "type": "address"
                },
                {
                    "internalType": "uint256",
                    "name": "amount",
                    "type": "uint256"
                }
            ],
            "name": "burnFrom",
            "outputs": [],
            "stateMutability": "nonpayable",
            "type": "function"
        },
        {
            "inputs": [],
            "name": "decimals",
            "outputs": [
                {
                    "internalType": "uint8",
                    "name": "",
                    "type": "uint8"
                }
            ],
            "stateMutability": "view",
            "type": "function"
        },
        {
            "inputs": [
                {
                    "internalType": "address",
                    "name": "spender",
                    "type": "address"
                },
                {
                    "internalType": "uint256",
                    "name": "subtractedValue",
                    "type": "uint256"
                }
            ],
            "name": "decreaseAllowance",
            "outputs": [
                {
                    "internalType": "bool",
                    "name": "",
                    "type": "bool"
                }
            ],
            "stateMutability": "nonpayable",
            "type": "function"
        },
        {
            "inputs": [],
            "name": "elysium",
            "outputs": [
                {
                    "internalType": "uint256",
                    "name": "",
                    "type": "uint256"
                }
            ],
            "stateMutability": "view",
            "type": "function"
        },
        {
            "inputs": [
                {
                    "internalType": "address",
                    "name": "account",
                    "type": "address"
                },
                {
                    "internalType": "bool",
                    "name": "value",
                    "type": "bool"
                }
            ],
            "name": "exemptAddress",
            "outputs": [],
            "stateMutability": "nonpayable",
            "type": "function"
        },
        {
            "inputs": [],
            "name": "fundingEnabled",
            "outputs": [
                {
                    "internalType": "bool",
                    "name": "",
                    "type": "bool"
                }
            ],
            "stateMutability": "view",
            "type": "function"
        },
        {
            "inputs": [],
            "name": "fundingFee",
            "outputs": [
                {
                    "internalType": "uint256",
                    "name": "",
                    "type": "uint256"
                }
            ],
            "stateMutability": "view",
            "type": "function"
        },
        {
            "inputs": [],
            "name": "fundingWallet",
            "outputs": [
                {
                    "internalType": "address payable",
                    "name": "",
                    "type": "address"
                }
            ],
            "stateMutability": "view",
            "type": "function"
        },
        {
            "inputs": [
                {
                    "internalType": "bytes32",
                    "name": "role",
                    "type": "bytes32"
                }
            ],
            "name": "getRoleAdmin",
            "outputs": [
                {
                    "internalType": "bytes32",
                    "name": "",
                    "type": "bytes32"
                }
            ],
            "stateMutability": "view",
            "type": "function"
        },
        {
            "inputs": [
                {
                    "internalType": "bytes32",
                    "name": "role",
                    "type": "bytes32"
                },
                {
                    "internalType": "address",
                    "name": "account",
                    "type": "address"
                }
            ],
            "name": "grantRole",
            "outputs": [],
            "stateMutability": "nonpayable",
            "type": "function"
        },
        {
            "inputs": [
                {
                    "internalType": "bytes32",
                    "name": "role",
                    "type": "bytes32"
                },
                {
                    "internalType": "address",
                    "name": "account",
                    "type": "address"
                }
            ],
            "name": "hasRole",
            "outputs": [
                {
                    "internalType": "bool",
                    "name": "",
                    "type": "bool"
                }
            ],
            "stateMutability": "view",
            "type": "function"
        },
        {
            "inputs": [
                {
                    "internalType": "address",
                    "name": "spender",
                    "type": "address"
                },
                {
                    "internalType": "uint256",
                    "name": "addedValue",
                    "type": "uint256"
                }
            ],
            "name": "increaseAllowance",
            "outputs": [
                {
                    "internalType": "bool",
                    "name": "",
                    "type": "bool"
                }
            ],
            "stateMutability": "nonpayable",
            "type": "function"
        },
        {
            "inputs": [],
            "name": "initLimit",
            "outputs": [
                {
                    "internalType": "uint256",
                    "name": "",
                    "type": "uint256"
                }
            ],
            "stateMutability": "view",
            "type": "function"
        },
        {
            "inputs": [],
            "name": "mintVault",
            "outputs": [
                {
                    "internalType": "address",
                    "name": "",
                    "type": "address"
                }
            ],
            "stateMutability": "view",
            "type": "function"
        },
        {
            "inputs": [],
            "name": "name",
            "outputs": [
                {
                    "internalType": "string",
                    "name": "",
                    "type": "string"
                }
            ],
            "stateMutability": "view",
            "type": "function"
        },
        {
            "inputs": [],
            "name": "preTrade",
            "outputs": [
                {
                    "internalType": "bool",
                    "name": "",
                    "type": "bool"
                }
            ],
            "stateMutability": "view",
            "type": "function"
        },
        {
            "inputs": [],
            "name": "previousToken",
            "outputs": [
                {
                    "internalType": "address",
                    "name": "",
                    "type": "address"
                }
            ],
            "stateMutability": "view",
            "type": "function"
        },
        {
            "inputs": [
                {
                    "internalType": "bytes32",
                    "name": "role",
                    "type": "bytes32"
                },
                {
                    "internalType": "address",
                    "name": "account",
                    "type": "address"
                }
            ],
            "name": "renounceRole",
            "outputs": [],
            "stateMutability": "nonpayable",
            "type": "function"
        },
        {
            "inputs": [
                {
                    "internalType": "address payable",
                    "name": "recipient",
                    "type": "address"
                }
            ],
            "name": "rescueEth",
            "outputs": [],
            "stateMutability": "nonpayable",
            "type": "function"
        },
        {
            "inputs": [
                {
                    "internalType": "address",
                    "name": "recipient",
                    "type": "address"
                },
                {
                    "internalType": "address",
                    "name": "token",
                    "type": "address"
                },
                {
                    "internalType": "uint256",
                    "name": "amount",
                    "type": "uint256"
                }
            ],
            "name": "rescueTokens",
            "outputs": [
                {
                    "internalType": "bool",
                    "name": "",
                    "type": "bool"
                }
            ],
            "stateMutability": "nonpayable",
            "type": "function"
        },
        {
            "inputs": [
                {
                    "internalType": "address",
                    "name": "recipient",
                    "type": "address"
                },
                {
                    "internalType": "contract IERC20",
                    "name": "token",
                    "type": "address"
                },
                {
                    "internalType": "uint256",
                    "name": "amount",
                    "type": "uint256"
                }
            ],
            "name": "rescueTokensSafe",
            "outputs": [
                {
                    "internalType": "bool",
                    "name": "",
                    "type": "bool"
                }
            ],
            "stateMutability": "nonpayable",
            "type": "function"
        },
        {
            "inputs": [
                {
                    "internalType": "bytes32",
                    "name": "role",
                    "type": "bytes32"
                },
                {
                    "internalType": "address",
                    "name": "account",
                    "type": "address"
                }
            ],
            "name": "revokeRole",
            "outputs": [],
            "stateMutability": "nonpayable",
            "type": "function"
        },
        {
            "inputs": [
                {
                    "internalType": "uint256",
                    "name": "_elysium",
                    "type": "uint256"
                }
            ],
            "name": "setElysium",
            "outputs": [],
            "stateMutability": "nonpayable",
            "type": "function"
        },
        {
            "inputs": [
                {
                    "internalType": "bool",
                    "name": "_setting",
                    "type": "bool"
                }
            ],
            "name": "setFundingSells",
            "outputs": [],
            "stateMutability": "nonpayable",
            "type": "function"
        },
        {
            "inputs": [
                {
                    "internalType": "address payable",
                    "name": "_wallet",
                    "type": "address"
                }
            ],
            "name": "setFundingWallet",
            "outputs": [],
            "stateMutability": "nonpayable",
            "type": "function"
        },
        {
            "inputs": [
                {
                    "internalType": "address",
                    "name": "_mintVault",
                    "type": "address"
                }
            ],
            "name": "setMintVault",
            "outputs": [],
            "stateMutability": "nonpayable",
            "type": "function"
        },
        {
            "inputs": [
                {
                    "internalType": "bool",
                    "name": "_preTrade",
                    "type": "bool"
                }
            ],
            "name": "setPretrade",
            "outputs": [],
            "stateMutability": "nonpayable",
            "type": "function"
        },
        {
            "inputs": [
                {
                    "internalType": "uint256",
                    "name": "_tokenThreshold",
                    "type": "uint256"
                }
            ],
            "name": "setTokenThreshold",
            "outputs": [],
            "stateMutability": "nonpayable",
            "type": "function"
        },
        {
            "inputs": [
                {
                    "internalType": "bytes4",
                    "name": "interfaceId",
                    "type": "bytes4"
                }
            ],
            "name": "supportsInterface",
            "outputs": [
                {
                    "internalType": "bool",
                    "name": "",
                    "type": "bool"
                }
            ],
            "stateMutability": "view",
            "type": "function"
        },
        {
            "inputs": [],
            "name": "symbol",
            "outputs": [
                {
                    "internalType": "string",
                    "name": "",
                    "type": "string"
                }
            ],
            "stateMutability": "view",
            "type": "function"
        },
        {
            "inputs": [],
            "name": "tokenThreshold",
            "outputs": [
                {
                    "internalType": "uint256",
                    "name": "",
                    "type": "uint256"
                }
            ],
            "stateMutability": "view",
            "type": "function"
        },
        {
            "inputs": [],
            "name": "totalSupply",
            "outputs": [
                {
                    "internalType": "uint256",
                    "name": "",
                    "type": "uint256"
                }
            ],
            "stateMutability": "view",
            "type": "function"
        },
        {
            "inputs": [
                {
                    "internalType": "address",
                    "name": "recipient",
                    "type": "address"
                },
                {
                    "internalType": "uint256",
                    "name": "amount",
                    "type": "uint256"
                }
            ],
            "name": "transfer",
            "outputs": [
                {
                    "internalType": "bool",
                    "name": "",
                    "type": "bool"
                }
            ],
            "stateMutability": "nonpayable",
            "type": "function"
        },
        {
            "inputs": [
                {
                    "internalType": "address",
                    "name": "sender",
                    "type": "address"
                },
                {
                    "internalType": "address",
                    "name": "recipient",
                    "type": "address"
                },
                {
                    "internalType": "uint256",
                    "name": "amount",
                    "type": "uint256"
                }
            ],
            "name": "transferFrom",
            "outputs": [
                {
                    "internalType": "bool",
                    "name": "",
                    "type": "bool"
                }
            ],
            "stateMutability": "nonpayable",
            "type": "function"
        },
        {
            "inputs": [
                {
                    "internalType": "address",
                    "name": "account",
                    "type": "address"
                },
                {
                    "internalType": "bool",
                    "name": "setting",
                    "type": "bool"
                }
            ],
            "name": "whitelistAddress",
            "outputs": [],
            "stateMutability": "nonpayable",
            "type": "function"
        }
    ],
    "bytecode": "60806040526103e8600b55620000186012600a62000815565b620000269061c3506200082d565b600d556019600e556200003c6012600a62000815565b6200004a906127106200082d565b600f556012805461ffff60a81b191661010160a81b1790553480156200006f57600080fd5b50604051620031d0380380620031d083398101604081905262000092916200084f565b60408051808201825260048152635242585360e01b60208083019182528351808501909452600a84526952425853616d7572616960b01b908401528151919291620000e0916003916200065c565b508051620000f69060049060208401906200065c565b5050601180546001600160a01b0319166001600160a01b0384161790555062000121600033620001b5565b6200013c600080516020620031b083398151915233620001b5565b62000165336200014f6012600a62000815565b6200015f906305f5e1006200082d565b620001c5565b601080546001600160a01b0319163390811790915562000187906001620001dc565b62000194306001620001dc565b50336000908152600860205260409020805460ff1916600117905562000929565b620001c182826200032d565b5050565b620001c18282620003b760201b620011be1760201c565b620001e9600033620004b4565b806200020b57506200020b600080516020620031b083398151915233620004b4565b6200025d5760405162461bcd60e51b815260206004820152601760248201527f496e73756666696369656e742070726976696c6567657300000000000000000060448201526064015b60405180910390fd5b6001600160a01b03821660009081526006602052604090205460ff1615158115151415620002ce5760405162461bcd60e51b815260206004820152601f60248201527f5242583a204163636f756e7420616c72656164792061742073657474696e6700604482015260640162000254565b6001600160a01b038216600081815260066020908152604091829020805460ff191685151590811790915591519182527f33e0bf3ce98fac4118d5a0a8fe49e83b6acdfdef32871c9eca20e1528d7701ba910160405180910390a25050565b620003398282620004b4565b620001c15760008281526005602090815260408083206001600160a01b03851684529091529020805460ff19166001179055620003733390565b6001600160a01b0316816001600160a01b0316837f2f8788117e7eff1d82e926ec794901d17c78024a50270940304540a733656f0d60405160405180910390a45050565b6001600160a01b0382166200040f5760405162461bcd60e51b815260206004820152601f60248201527f45524332303a206d696e7420746f20746865207a65726f206164647265737300604482015260640162000254565b6200041d60008383620004e1565b80600260008282546200043191906200087a565b90915550506001600160a01b03821660009081526020819052604081208054839290620004609084906200087a565b90915550506040518181526001600160a01b038316906000907fddf252ad1be2c89b69c2b068fc378daa952ba7f163c4a11628f55a4df523b3ef9060200160405180910390a3620001c16000838362000590565b60008281526005602090815260408083206001600160a01b038516845290915290205460ff165b92915050565b6001600160a01b03831660009081526008602052604090205460ff166200059057600b546011546040516370a0823160e01b81526001600160a01b0380871660048301526200059093879390929116906370a0823190602401602060405180830381865afa15801562000558573d6000803e3d6000fd5b505050506040513d601f19601f820116820180604052508101906200057e919062000895565b6200058a9190620008af565b620005ad565b620005a8838383620005a860201b620008e11760201c565b505050565b6001600160a01b03821660009081526020819052604081208054839290620005d79084906200087a565b90915550506012546001600160a01b03166000908152602081905260408120805483929062000608908490620008d2565b90915550506001600160a01b038216600081815260086020526040808220805460ff19166001179055518392917f4e6fe3f360b7528110f6226c8ab8696ac6e82f37126936ce82b17cf133d298a891a35050565b8280546200066a90620008ec565b90600052602060002090601f0160209004810192826200068e5760008555620006d9565b82601f10620006a957805160ff1916838001178555620006d9565b82800160010185558215620006d9579182015b82811115620006d9578251825591602001919060010190620006bc565b50620006e7929150620006eb565b5090565b5b80821115620006e75760008155600101620006ec565b634e487b7160e01b600052601160045260246000fd5b600181815b80851115620007595781600019048211156200073d576200073d62000702565b808516156200074b57918102915b93841c93908002906200071d565b509250929050565b6000826200077257506001620004db565b816200078157506000620004db565b81600181146200079a5760028114620007a557620007c5565b6001915050620004db565b60ff841115620007b957620007b962000702565b50506001821b620004db565b5060208310610133831016604e8410600b8410161715620007ea575081810a620004db565b620007f6838362000718565b80600019048211156200080d576200080d62000702565b029392505050565b60006200082660ff84168362000761565b9392505050565b60008160001904831182151516156200084a576200084a62000702565b500290565b6000602082840312156200086257600080fd5b81516001600160a01b03811681146200082657600080fd5b6000821982111562000890576200089062000702565b500190565b600060208284031215620008a857600080fd5b5051919050565b600082620008cd57634e487b7160e01b600052601260045260246000fd5b500490565b600082821015620008e757620008e762000702565b500390565b600181811c908216806200090157607f821691505b602082108114156200092357634e487b7160e01b600052602260045260246000fd5b50919050565b61287780620009396000396000f3fe608060405234801561001057600080fd5b506004361061028a5760003560e01c80636ebcf6071161015c578063a9059cbb116100ce578063d547741f11610087578063d547741f146105e1578063dd62ed3e146105f4578063e10e95c91461062d578063eca2b4d314610641578063f33c86cd14610654578063f395af961461066857600080fd5b8063a9059cbb1461051c578063b028b05c1461052f578063b3f579f514610542578063b9a45aac146105a8578063cea9d26f146105bb578063ceacd451146105ce57600080fd5b806391d148541161012057806391d14854146104c057806395d89b41146104d35780639819d24e146104db578063a217fddf146104ee578063a3019cf8146104f6578063a457c2d71461050957600080fd5b80636ebcf6071461045457806370a082311461047457806379cc6790146104875780637cf2bd301461049a57806387bde549146104ad57600080fd5b8063313ce56711610200578063412131fa116101b9578063412131fa1461040057806342966c6814610413578063455a43961461042657806359a7cb79146104395780635d16e1201461044257806366692ff01461044b57600080fd5b8063313ce567146103845780633410fe6e1461039357806336568abe1461039c57806339509351146103af5780633b1ab44c146103c25780633c4b40b8146103d557600080fd5b806318160ddd1161025257806318160ddd1461030b57806323b872dd14610313578063248a9ca3146103265780632a87c91f146103495780632eee963b1461035c5780632f2ff15d1461037157600080fd5b8063017b0a301461028f57806301ffc9a7146102a457806304876746146102cc57806306fdde03146102e3578063095ea7b3146102f8575b600080fd5b6102a261029d36600461235c565b61067b565b005b6102b76102b2366004612379565b6106e7565b60405190151581526020015b60405180910390f35b6102d5600d5481565b6040519081526020016102c3565b6102eb61071e565b6040516102c391906123cf565b6102b7610306366004612417565b6107b0565b6002546102d5565b6102b7610321366004612443565b6107c6565b6102d5610334366004612484565b60009081526005602052604090206001015490565b6102a261035736600461249d565b610872565b6102d560008051602061282283398151915281565b6102a261037f3660046124ba565b6108bb565b604051601281526020016102c3565b6102d5600b5481565b6102a26103aa3660046124ba565b6108e6565b6102b76103bd366004612417565b610964565b6102a26103d036600461249d565b6109a0565b6010546103e8906001600160a01b031681565b6040516001600160a01b0390911681526020016102c3565b6102a261040e3660046124ea565b6109fc565b6102a2610421366004612484565b610abc565b6102a2610434366004612535565b610ac9565b6102d5600c5481565b6102d5600e5481565b6102d5600f5481565b6102d561046236600461249d565b60006020819052908152604090205481565b6102d561048236600461249d565b610b1b565b6102a2610495366004612417565b610bfa565b6102a26104a8366004612484565b610c7b565b6102a26104bb366004612484565b610cc5565b6102b76104ce3660046124ba565b610cf1565b6102eb610d1c565b6102a26104e936600461249d565b610d2b565b6102d5600081565b6102a2610504366004612535565b610d72565b6102b7610517366004612417565b610dc4565b6102b761052a366004612417565b610e5d565b6012546103e8906001600160a01b031681565b61057e61055036600461249d565b600a602052600090815260409020805460018201546002909201546001600160a01b03918216928216911683565b604080516001600160a01b03948516815292841660208401529216918101919091526060016102c3565b6102a26105b6366004612535565b610e6a565b6102b76105c9366004612443565b610f7d565b6102b76105dc366004612443565b61108e565b6102a26105ef3660046124ba565b611135565b6102d5610602366004612563565b6001600160a01b03918216600090815260016020908152604080832093909416825291909152205490565b6012546102b790600160a81b900460ff1681565b6102a261064f36600461235c565b61115b565b6012546102b790600160b01b900460ff1681565b6011546103e8906001600160a01b031681565b610686600033610cf1565b806106a457506106a460008051602061282283398151915233610cf1565b6106c95760405162461bcd60e51b81526004016106c090612591565b60405180910390fd5b60128054911515600160a81b0260ff60a81b19909216919091179055565b60006001600160e01b03198216637965db0b60e01b148061071857506301ffc9a760e01b6001600160e01b03198316145b92915050565b60606003805461072d906125c8565b80601f0160208091040260200160405190810160405280929190818152602001828054610759906125c8565b80156107a65780601f1061077b576101008083540402835291602001916107a6565b820191906000526020600020905b81548152906001019060200180831161078957829003601f168201915b5050505050905090565b60006107bd3384846112a9565b50600192915050565b60006107d38484846113cd565b6001600160a01b0384166000908152600160209081526040808320338452909152902054828110156108585760405162461bcd60e51b815260206004820152602860248201527f45524332303a207472616e7366657220616d6f756e74206578636565647320616044820152676c6c6f77616e636560c01b60648201526084016106c0565b61086585338584036112a9565b60019150505b9392505050565b61087d600033610cf1565b6108995760405162461bcd60e51b81526004016106c090612591565b601280546001600160a01b0319166001600160a01b0392909216919091179055565b6000828152600560205260409020600101546108d781336116cf565b6108e18383611733565b505050565b6001600160a01b03811633146109565760405162461bcd60e51b815260206004820152602f60248201527f416363657373436f6e74726f6c3a2063616e206f6e6c792072656e6f756e636560448201526e103937b632b9903337b91039b2b63360891b60648201526084016106c0565b61096082826117b9565b5050565b3360008181526001602090815260408083206001600160a01b038716845290915281205490916107bd91859061099b908690612619565b6112a9565b6109ab600033610cf1565b6109c75760405162461bcd60e51b81526004016106c090612591565b6040516001600160a01b038216904780156108fc02916000818181858888f19350505050158015610960573d6000803e3d6000fd5b610a07600033610cf1565b80610a255750610a2560008051602061282283398151915233610cf1565b610a415760405162461bcd60e51b81526004016106c090612591565b6001600160a01b038381166000818152600a602052604080822080546001600160a01b03199081168517825560018201805482168988169081179091556002909201805490911695871695909517909455517fd482e95abb3d8f5eaf8f07dbd4c204ea55842bacc8cf5d530aa104716551e2169190a3505050565b610ac63382611820565b50565b610ad4600033610cf1565b610af05760405162461bcd60e51b81526004016106c090612591565b6001600160a01b03919091166000908152600760205260409020805460ff1916911515919091179055565b6001600160a01b03811660009081526008602052604081205460ff1615610b5a576001600160a01b038216600090815260208190526040902054610718565b600b546011546040516370a0823160e01b81526001600160a01b0385811660048301526000939216906370a0823190602401602060405180830381865afa158015610ba9573d6000803e3d6000fd5b505050506040513d601f19601f82011682018060405250810190610bcd9190612631565b610bd7919061264a565b6001600160a01b03841660009081526020819052604090205461086b9190612619565b6000610c068333610602565b905081811015610c645760405162461bcd60e51b8152602060048201526024808201527f45524332303a206275726e20616d6f756e74206578636565647320616c6c6f77604482015263616e636560e01b60648201526084016106c0565b610c7183338484036112a9565b6108e18383611820565b610c86600033610cf1565b80610ca45750610ca460008051602061282283398151915233610cf1565b610cc05760405162461bcd60e51b81526004016106c090612591565b600c55565b610cd0600033610cf1565b610cec5760405162461bcd60e51b81526004016106c090612591565b600f55565b60009182526005602090815260408084206001600160a01b0393909316845291905290205460ff1690565b60606004805461072d906125c8565b6000610d3781336116cf565b50601080546001600160a01b039092166001600160a01b0319909216821790556000908152600660205260409020805460ff19166001179055565b610d7d600033610cf1565b610d995760405162461bcd60e51b81526004016106c090612591565b6001600160a01b03919091166000908152600860205260409020805460ff1916911515919091179055565b3360009081526001602090815260408083206001600160a01b038616845290915281205482811015610e465760405162461bcd60e51b815260206004820152602560248201527f45524332303a2064656372656173656420616c6c6f77616e63652062656c6f77604482015264207a65726f60d81b60648201526084016106c0565b610e5333858584036112a9565b5060019392505050565b60006107bd3384846113cd565b610e75600033610cf1565b80610e935750610e9360008051602061282283398151915233610cf1565b610eaf5760405162461bcd60e51b81526004016106c090612591565b6001600160a01b03821660009081526006602052604090205460ff1615158115151415610f1e5760405162461bcd60e51b815260206004820152601f60248201527f5242583a204163636f756e7420616c72656164792061742073657474696e670060448201526064016106c0565b6001600160a01b038216600081815260066020908152604091829020805460ff191685151590811790915591519182527f33e0bf3ce98fac4118d5a0a8fe49e83b6acdfdef32871c9eca20e1528d7701ba910160405180910390a25050565b6000610f898133610cf1565b610fa55760405162461bcd60e51b81526004016106c090612591565b6001600160a01b038084166000818152600a602052604090205490911614156110105760405162461bcd60e51b815260206004820152601d60248201527f43616e2774207472616e73666572206f7574204c5020746f6b656e732100000060448201526064016106c0565b60405163a9059cbb60e01b81526001600160a01b0385811660048301526024820184905284169063a9059cbb906044016020604051808303816000875af115801561105f573d6000803e3d6000fd5b505050506040513d601f19601f82011682018060405250810190611083919061266c565b506001949350505050565b600061109a8133610cf1565b6110b65760405162461bcd60e51b81526004016106c090612591565b6001600160a01b038084166000818152600a602052604090205490911614156111215760405162461bcd60e51b815260206004820152601d60248201527f43616e2774207472616e73666572206f7574204c5020746f6b656e732100000060448201526064016106c0565b610e536001600160a01b038416858461182a565b60008281526005602052604090206001015461115181336116cf565b6108e183836117b9565b611166600033610cf1565b80611184575061118460008051602061282283398151915233610cf1565b6111a05760405162461bcd60e51b81526004016106c090612591565b60128054911515600160b01b0260ff60b01b19909216919091179055565b6001600160a01b0382166112145760405162461bcd60e51b815260206004820152601f60248201527f45524332303a206d696e7420746f20746865207a65726f20616464726573730060448201526064016106c0565b6112206000838361187c565b80600260008282546112329190612619565b90915550506001600160a01b0382166000908152602081905260408120805483929061125f908490612619565b90915550506040518181526001600160a01b038316906000907fddf252ad1be2c89b69c2b068fc378daa952ba7f163c4a11628f55a4df523b3ef9060200160405180910390a35050565b6001600160a01b03831661130b5760405162461bcd60e51b8152602060048201526024808201527f45524332303a20617070726f76652066726f6d20746865207a65726f206164646044820152637265737360e01b60648201526084016106c0565b6001600160a01b03821661136c5760405162461bcd60e51b815260206004820152602260248201527f45524332303a20617070726f766520746f20746865207a65726f206164647265604482015261737360f01b60648201526084016106c0565b6001600160a01b0383811660008181526001602090815260408083209487168084529482529182902085905590518481527f8c5be1e5ebec7d5bd14f71427d1e84f3dd0314c0f7b2291e5b200ac8c7c3b925910160405180910390a3505050565b601254600160b01b900460ff1615611432576001600160a01b03831660009081526006602052604090205460ff166114325760405162461bcd60e51b8152602060048201526008602482015267507265547261646560c01b60448201526064016106c0565b6001600160a01b03831660009081526007602052604090205460ff1615801561147457506001600160a01b03821660009081526007602052604090205460ff16155b6114c05760405162461bcd60e51b815260206004820152601960248201527f426c61636b6c6973746564206164647265737320676976656e0000000000000060448201526064016106c0565b60006114cb30610b1b565b90506000600f548210156114df57816114e3565b600f545b9050600c54421115801561151157506001600160a01b038086166000818152600a6020526040902054909116145b156115da576001600160a01b038416600090815260096020526040902054429061153d9061012c612619565b1061157f5760405162461bcd60e51b815260206004820152601260248201527110dbdbdb191bdddb881a5b881959999958dd60721b60448201526064016106c0565b600d548311156115be5760405162461bcd60e51b815260206004820152600a602482015269125b9a5d081b1a5b5a5d60b21b60448201526064016106c0565b6001600160a01b03841660009081526009602052604090204290555b601254600160a81b900460ff1680156115fd5750601254600160a01b900460ff16155b801561162357506001600160a01b038085166000818152600a6020526040902054909116145b801561164857506001600160a01b03851660009081526006602052604090205460ff16155b801561166d57506001600160a01b03841660009081526006602052604090205460ff16155b156116bd576000600b54600e54856116859190612689565b61168f919061264a565b905061169b81856126a8565b93506116a8863083611923565b6116bb6116b58383612619565b86611afe565b505b6116c8858585611923565b5050505050565b6116d98282610cf1565b610960576116f1816001600160a01b03166014611d63565b6116fc836020611d63565b60405160200161170d9291906126bf565b60408051601f198184030181529082905262461bcd60e51b82526106c0916004016123cf565b61173d8282610cf1565b6109605760008281526005602090815260408083206001600160a01b03851684529091529020805460ff191660011790556117753390565b6001600160a01b0316816001600160a01b0316837f2f8788117e7eff1d82e926ec794901d17c78024a50270940304540a733656f0d60405160405180910390a45050565b6117c38282610cf1565b156109605760008281526005602090815260408083206001600160a01b0385168085529252808320805460ff1916905551339285917ff6391f5c32d9c69d2a47ea670b442974b53935d1edc7fd64eb21e047a839171b9190a45050565b6109608282611eff565b604080516001600160a01b038416602482015260448082018490528251808303909101815260649091019091526020810180516001600160e01b031663a9059cbb60e01b1790526108e1908490612059565b6001600160a01b03831660009081526008602052604090205460ff166108e157600b546011546040516370a0823160e01b81526001600160a01b0380871660048301526108e193879390929116906370a0823190602401602060405180830381865afa1580156118f0573d6000803e3d6000fd5b505050506040513d601f19601f820116820180604052508101906119149190612631565b61191e919061264a565b61212b565b6001600160a01b0383166119875760405162461bcd60e51b815260206004820152602560248201527f45524332303a207472616e736665722066726f6d20746865207a65726f206164604482015264647265737360d81b60648201526084016106c0565b6001600160a01b0382166119e95760405162461bcd60e51b815260206004820152602360248201527f45524332303a207472616e7366657220746f20746865207a65726f206164647260448201526265737360e81b60648201526084016106c0565b6119f483838361187c565b6001600160a01b03831660009081526020819052604090205481811015611a6c5760405162461bcd60e51b815260206004820152602660248201527f45524332303a207472616e7366657220616d6f756e7420657863656564732062604482015265616c616e636560d01b60648201526084016106c0565b6001600160a01b03808516600090815260208190526040808220858503905591851681529081208054849290611aa3908490612619565b92505081905550826001600160a01b0316846001600160a01b03167fddf252ad1be2c89b69c2b068fc378daa952ba7f163c4a11628f55a4df523b3ef84604051611aef91815260200190565b60405180910390a35b50505050565b60128054600160a01b60ff60a01b199091161790556001600160a01b038181166000908152600a6020908152604080832081516060808201845282548716825260018301548716948201859052600292830154909616818401819052835183815296870190935294919391908160200160208202803683370190505090503081600081518110611b9057611b9061274a565b60200260200101906001600160a01b031690816001600160a01b0316815250508281600181518110611bc457611bc461274a565b60200260200101906001600160a01b031690816001600160a01b031681525050611bef3083886112a9565b816001600160a01b031663ad5c46486040518163ffffffff1660e01b8152600401602060405180830381865afa158015611c2d573d6000803e3d6000fd5b505050506040513d601f19601f82011682018060405250810190611c519190612760565b6001600160a01b031684604001516001600160a01b03161415611ce05760105460405163791ac94760e01b81526001600160a01b038481169263791ac94792611ca9928b92600092889290911690429060040161277d565b600060405180830381600087803b158015611cc357600080fd5b505af1158015611cd7573d6000803e3d6000fd5b50505050611d4e565b601054604051635c11d79560e01b81526001600160a01b0384811692635c11d79592611d1b928b92600092889290911690429060040161277d565b600060405180830381600087803b158015611d3557600080fd5b505af1158015611d49573d6000803e3d6000fd5b505050505b50506012805460ff60a01b1916905550505050565b60606000611d72836002612689565b611d7d906002612619565b67ffffffffffffffff811115611d9557611d95612734565b6040519080825280601f01601f191660200182016040528015611dbf576020820181803683370190505b509050600360fc1b81600081518110611dda57611dda61274a565b60200101906001600160f81b031916908160001a905350600f60fb1b81600181518110611e0957611e0961274a565b60200101906001600160f81b031916908160001a9053506000611e2d846002612689565b611e38906001612619565b90505b6001811115611eb0576f181899199a1a9b1b9c1cb0b131b232b360811b85600f1660108110611e6c57611e6c61274a565b1a60f81b828281518110611e8257611e8261274a565b60200101906001600160f81b031916908160001a90535060049490941c93611ea9816127ee565b9050611e3b565b50831561086b5760405162461bcd60e51b815260206004820181905260248201527f537472696e67733a20686578206c656e67746820696e73756666696369656e7460448201526064016106c0565b6001600160a01b038216611f5f5760405162461bcd60e51b815260206004820152602160248201527f45524332303a206275726e2066726f6d20746865207a65726f206164647265736044820152607360f81b60648201526084016106c0565b611f6b8260008361187c565b6001600160a01b03821660009081526020819052604090205481811015611fdf5760405162461bcd60e51b815260206004820152602260248201527f45524332303a206275726e20616d6f756e7420657863656564732062616c616e604482015261636560f01b60648201526084016106c0565b6001600160a01b038316600090815260208190526040812083830390556002805484929061200e9084906126a8565b90915550506040518281526000906001600160a01b038516907fddf252ad1be2c89b69c2b068fc378daa952ba7f163c4a11628f55a4df523b3ef9060200160405180910390a3505050565b60006120ae826040518060400160405280602081526020017f5361666545524332303a206c6f772d6c6576656c2063616c6c206661696c6564815250856001600160a01b03166121d69092919063ffffffff16565b8051909150156108e157808060200190518101906120cc919061266c565b6108e15760405162461bcd60e51b815260206004820152602a60248201527f5361666545524332303a204552433230206f7065726174696f6e20646964206e6044820152691bdd081cdd58d8d9595960b21b60648201526084016106c0565b6001600160a01b03821660009081526020819052604081208054839290612153908490612619565b90915550506012546001600160a01b0316600090815260208190526040812080548392906121829084906126a8565b90915550506001600160a01b038216600081815260086020526040808220805460ff19166001179055518392917f4e6fe3f360b7528110f6226c8ab8696ac6e82f37126936ce82b17cf133d298a891a35050565b60606121e584846000856121ed565b949350505050565b60608247101561224e5760405162461bcd60e51b815260206004820152602660248201527f416464726573733a20696e73756666696369656e742062616c616e636520666f6044820152651c8818d85b1b60d21b60648201526084016106c0565b843b61229c5760405162461bcd60e51b815260206004820152601d60248201527f416464726573733a2063616c6c20746f206e6f6e2d636f6e747261637400000060448201526064016106c0565b600080866001600160a01b031685876040516122b89190612805565b60006040518083038185875af1925050503d80600081146122f5576040519150601f19603f3d011682016040523d82523d6000602084013e6122fa565b606091505b509150915061230a828286612315565b979650505050505050565b6060831561232457508161086b565b8251156123345782518084602001fd5b8160405162461bcd60e51b81526004016106c091906123cf565b8015158114610ac657600080fd5b60006020828403121561236e57600080fd5b813561086b8161234e565b60006020828403121561238b57600080fd5b81356001600160e01b03198116811461086b57600080fd5b60005b838110156123be5781810151838201526020016123a6565b83811115611af85750506000910152565b60208152600082518060208401526123ee8160408501602087016123a3565b601f01601f19169190910160400192915050565b6001600160a01b0381168114610ac657600080fd5b6000806040838503121561242a57600080fd5b823561243581612402565b946020939093013593505050565b60008060006060848603121561245857600080fd5b833561246381612402565b9250602084013561247381612402565b929592945050506040919091013590565b60006020828403121561249657600080fd5b5035919050565b6000602082840312156124af57600080fd5b813561086b81612402565b600080604083850312156124cd57600080fd5b8235915060208301356124df81612402565b809150509250929050565b6000806000606084860312156124ff57600080fd5b833561250a81612402565b9250602084013561251a81612402565b9150604084013561252a81612402565b809150509250925092565b6000806040838503121561254857600080fd5b823561255381612402565b915060208301356124df8161234e565b6000806040838503121561257657600080fd5b823561258181612402565b915060208301356124df81612402565b60208082526017908201527f496e73756666696369656e742070726976696c65676573000000000000000000604082015260600190565b600181811c908216806125dc57607f821691505b602082108114156125fd57634e487b7160e01b600052602260045260246000fd5b50919050565b634e487b7160e01b600052601160045260246000fd5b6000821982111561262c5761262c612603565b500190565b60006020828403121561264357600080fd5b5051919050565b60008261266757634e487b7160e01b600052601260045260246000fd5b500490565b60006020828403121561267e57600080fd5b815161086b8161234e565b60008160001904831182151516156126a3576126a3612603565b500290565b6000828210156126ba576126ba612603565b500390565b7f416363657373436f6e74726f6c3a206163636f756e74200000000000000000008152600083516126f78160178501602088016123a3565b7001034b99036b4b9b9b4b733903937b6329607d1b60179184019182015283516127288160288401602088016123a3565b01602801949350505050565b634e487b7160e01b600052604160045260246000fd5b634e487b7160e01b600052603260045260246000fd5b60006020828403121561277257600080fd5b815161086b81612402565b600060a082018783526020878185015260a0604085015281875180845260c086019150828901935060005b818110156127cd5784516001600160a01b0316835293830193918301916001016127a8565b50506001600160a01b03969096166060850152505050608001529392505050565b6000816127fd576127fd612603565b506000190190565b600082516128178184602087016123a3565b919091019291505056feb73fa0cb2416690a6547825d5ccf9cedab6a4cd328635df925e1dfd86cf94c21a26469706673582212208b5d83c012822b6479aa84c6bbe051bafedbd0a280464bef1fd3ae505dcfdfba64736f6c634300080b0033b73fa0cb2416690a6547825d5ccf9cedab6a4cd328635df925e1dfd86cf94c21",
    "sourcePath": "/Users/sycore/Documents/proyecto_equis/rbx/products/rbxsamurai/contracts/RBXS.sol",
    "compiler": {
        "name": "solc",
        "version": "0.8.11+commit.d7f03943"
    },
    "functionHashes": {
        "AUX_ADMIN()": "2eee963b",
        "DEFAULT_ADMIN_ROLE()": "a217fddf",
        "DIVISOR()": "3410fe6e",
        "_addPair(address,address,address)": "412131fa",
        "_balances(address)": "6ebcf607",
        "_routerPairs(address)": "b3f579f5",
        "allowance(address,address)": "dd62ed3e",
        "approve(address,uint256)": "095ea7b3",
        "balanceOf(address)": "70a08231",
        "blacklistAddress(address,bool)": "455a4396",
        "burn(uint256)": "42966c68",
        "burnFrom(address,uint256)": "79cc6790",
        "decimals()": "313ce567",
        "decreaseAllowance(address,uint256)": "a457c2d7",
        "elysium()": "59a7cb79",
        "exemptAddress(address,bool)": "a3019cf8",
        "fundingEnabled()": "e10e95c9",
        "fundingFee()": "5d16e120",
        "fundingWallet()": "3c4b40b8",
        "getRoleAdmin(bytes32)": "248a9ca3",
        "grantRole(bytes32,address)": "2f2ff15d",
        "hasRole(bytes32,address)": "91d14854",
        "increaseAllowance(address,uint256)": "39509351",
        "initLimit()": "04876746",
        "mintVault()": "b028b05c",
        "name()": "06fdde03",
        "preTrade()": "f33c86cd",
        "previousToken()": "f395af96",
        "renounceRole(bytes32,address)": "36568abe",
        "rescueEth(address)": "3b1ab44c",
        "rescueTokens(address,address,uint256)": "cea9d26f",
        "rescueTokensSafe(address,address,uint256)": "ceacd451",
        "revokeRole(bytes32,address)": "d547741f",
        "setElysium(uint256)": "7cf2bd30",
        "setFundingSells(bool)": "017b0a30",
        "setFundingWallet(address)": "9819d24e",
        "setMintVault(address)": "2a87c91f",
        "setPretrade(bool)": "eca2b4d3",
        "setTokenThreshold(uint256)": "87bde549",
        "supportsInterface(bytes4)": "01ffc9a7",
        "symbol()": "95d89b41",
        "tokenThreshold()": "66692ff0",
        "totalSupply()": "18160ddd",
        "transfer(address,uint256)": "a9059cbb",
        "transferFrom(address,address,uint256)": "23b872dd",
        "whitelistAddress(address,bool)": "b9a45aac"
    },
    "gasEstimates": {
        "creation": {
            "codeDepositCost": "2071800",
            "executionCost": "infinite",
            "totalCost": "infinite"
        },
        "external": {
            "AUX_ADMIN()": "infinite",
            "DEFAULT_ADMIN_ROLE()": "306",
            "DIVISOR()": "2363",
            "_addPair(address,address,address)": "infinite",
            "_balances(address)": "2562",
            "_routerPairs(address)": "6943",
            "allowance(address,address)": "infinite",
            "approve(address,uint256)": "24714",
            "balanceOf(address)": "infinite",
            "blacklistAddress(address,bool)": "infinite",
            "burn(uint256)": "infinite",
            "burnFrom(address,uint256)": "infinite",
            "decimals()": "223",
            "decreaseAllowance(address,uint256)": "27026",
            "elysium()": "2406",
            "exemptAddress(address,bool)": "infinite",
            "fundingEnabled()": "2404",
            "fundingFee()": "2428",
            "fundingWallet()": "2493",
            "getRoleAdmin(bytes32)": "2534",
            "grantRole(bytes32,address)": "infinite",
            "hasRole(bytes32,address)": "2698",
            "increaseAllowance(address,uint256)": "27029",
            "initLimit()": "2386",
            "mintVault()": "2404",
            "name()": "infinite",
            "preTrade()": "2448",
            "previousToken()": "2491",
            "renounceRole(bytes32,address)": "29090",
            "rescueEth(address)": "infinite",
            "rescueTokens(address,address,uint256)": "infinite",
            "rescueTokensSafe(address,address,uint256)": "infinite",
            "revokeRole(bytes32,address)": "infinite",
            "setElysium(uint256)": "infinite",
            "setFundingSells(bool)": "infinite",
            "setFundingWallet(address)": "infinite",
            "setMintVault(address)": "26994",
            "setPretrade(bool)": "infinite",
            "setTokenThreshold(uint256)": "24775",
            "supportsInterface(bytes4)": "495",
            "symbol()": "infinite",
            "tokenThreshold()": "2450",
            "totalSupply()": "2338",
            "transfer(address,uint256)": "infinite",
            "transferFrom(address,address,uint256)": "infinite",
            "whitelistAddress(address,bool)": "infinite"
        },
        "internal": {
            "_addBal(address,uint256)": "76727",
            "_afterTokenTransfer(address,address,uint256)": "infinite",
            "_beforeTokenTransfer(address,address,uint256)": "infinite",
            "_burn(address,uint256)": "infinite",
            "_mint(address,uint256)": "infinite",
            "_transfer(address,address,uint256)": "infinite",
            "swapTokensByPair(uint256,address)": "infinite"
        }
    }
}