{
    "contractName": "RBXS",
    "abi": [
        {
            "inputs": [],
            "stateMutability": "nonpayable",
            "type": "constructor"
        },
        {
            "anonymous": false,
            "inputs": [
                {
                    "indexed": true,
                    "internalType": "address",
                    "name": "owner",
                    "type": "address"
                },
                {
                    "indexed": true,
                    "internalType": "address",
                    "name": "spender",
                    "type": "address"
                },
                {
                    "indexed": false,
                    "internalType": "uint256",
                    "name": "value",
                    "type": "uint256"
                }
            ],
            "name": "Approval",
            "type": "event"
        },
        {
            "anonymous": false,
            "inputs": [
                {
                    "indexed": true,
                    "internalType": "address",
                    "name": "delegator",
                    "type": "address"
                },
                {
                    "indexed": true,
                    "internalType": "address",
                    "name": "fromDelegate",
                    "type": "address"
                },
                {
                    "indexed": true,
                    "internalType": "address",
                    "name": "toDelegate",
                    "type": "address"
                }
            ],
            "name": "DelegateChanged",
            "type": "event"
        },
        {
            "anonymous": false,
            "inputs": [
                {
                    "indexed": true,
                    "internalType": "address",
                    "name": "delegate",
                    "type": "address"
                },
                {
                    "indexed": false,
                    "internalType": "uint256",
                    "name": "previousBalance",
                    "type": "uint256"
                },
                {
                    "indexed": false,
                    "internalType": "uint256",
                    "name": "newBalance",
                    "type": "uint256"
                }
            ],
            "name": "DelegateVotesChanged",
            "type": "event"
        },
        {
            "anonymous": false,
            "inputs": [
                {
                    "indexed": true,
                    "internalType": "bytes32",
                    "name": "role",
                    "type": "bytes32"
                },
                {
                    "indexed": true,
                    "internalType": "bytes32",
                    "name": "previousAdminRole",
                    "type": "bytes32"
                },
                {
                    "indexed": true,
                    "internalType": "bytes32",
                    "name": "newAdminRole",
                    "type": "bytes32"
                }
            ],
            "name": "RoleAdminChanged",
            "type": "event"
        },
        {
            "anonymous": false,
            "inputs": [
                {
                    "indexed": true,
                    "internalType": "bytes32",
                    "name": "role",
                    "type": "bytes32"
                },
                {
                    "indexed": true,
                    "internalType": "address",
                    "name": "account",
                    "type": "address"
                },
                {
                    "indexed": true,
                    "internalType": "address",
                    "name": "sender",
                    "type": "address"
                }
            ],
            "name": "RoleGranted",
            "type": "event"
        },
        {
            "anonymous": false,
            "inputs": [
                {
                    "indexed": true,
                    "internalType": "bytes32",
                    "name": "role",
                    "type": "bytes32"
                },
                {
                    "indexed": true,
                    "internalType": "address",
                    "name": "account",
                    "type": "address"
                },
                {
                    "indexed": true,
                    "internalType": "address",
                    "name": "sender",
                    "type": "address"
                }
            ],
            "name": "RoleRevoked",
            "type": "event"
        },
        {
            "anonymous": false,
            "inputs": [
                {
                    "indexed": true,
                    "internalType": "address",
                    "name": "pair",
                    "type": "address"
                },
                {
                    "indexed": true,
                    "internalType": "address",
                    "name": "router",
                    "type": "address"
                }
            ],
            "name": "SetPair",
            "type": "event"
        },
        {
            "anonymous": false,
            "inputs": [
                {
                    "indexed": true,
                    "internalType": "address",
                    "name": "from",
                    "type": "address"
                },
                {
                    "indexed": true,
                    "internalType": "address",
                    "name": "to",
                    "type": "address"
                },
                {
                    "indexed": false,
                    "internalType": "uint256",
                    "name": "value",
                    "type": "uint256"
                }
            ],
            "name": "Transfer",
            "type": "event"
        },
        {
            "anonymous": false,
            "inputs": [
                {
                    "indexed": true,
                    "internalType": "address",
                    "name": "account",
                    "type": "address"
                },
                {
                    "indexed": false,
                    "internalType": "bool",
                    "name": "isExcluded",
                    "type": "bool"
                }
            ],
            "name": "WhitelistAddress",
            "type": "event"
        },
        {
            "inputs": [],
            "name": "AUX_ADMIN",
            "outputs": [
                {
                    "internalType": "bytes32",
                    "name": "",
                    "type": "bytes32"
                }
            ],
            "stateMutability": "view",
            "type": "function"
        },
        {
            "inputs": [],
            "name": "DEFAULT_ADMIN_ROLE",
            "outputs": [
                {
                    "internalType": "bytes32",
                    "name": "",
                    "type": "bytes32"
                }
            ],
            "stateMutability": "view",
            "type": "function"
        },
        {
            "inputs": [],
            "name": "DIVISOR",
            "outputs": [
                {
                    "internalType": "uint256",
                    "name": "",
                    "type": "uint256"
                }
            ],
            "stateMutability": "view",
            "type": "function"
        },
        {
            "inputs": [],
            "name": "DOMAIN_SEPARATOR",
            "outputs": [
                {
                    "internalType": "bytes32",
                    "name": "",
                    "type": "bytes32"
                }
            ],
            "stateMutability": "view",
            "type": "function"
        },
        {
            "inputs": [
                {
                    "internalType": "address",
                    "name": "pair",
                    "type": "address"
                },
                {
                    "internalType": "address",
                    "name": "router",
                    "type": "address"
                },
                {
                    "internalType": "address",
                    "name": "base",
                    "type": "address"
                }
            ],
            "name": "_addPair",
            "outputs": [],
            "stateMutability": "nonpayable",
            "type": "function"
        },
        {
            "inputs": [
                {
                    "internalType": "address",
                    "name": "",
                    "type": "address"
                }
            ],
            "name": "_routerPairs",
            "outputs": [
                {
                    "internalType": "address",
                    "name": "pair",
                    "type": "address"
                },
                {
                    "internalType": "address",
                    "name": "router",
                    "type": "address"
                },
                {
                    "internalType": "address",
                    "name": "base",
                    "type": "address"
                }
            ],
            "stateMutability": "view",
            "type": "function"
        },
        {
            "inputs": [
                {
                    "internalType": "address",
                    "name": "owner",
                    "type": "address"
                },
                {
                    "internalType": "address",
                    "name": "spender",
                    "type": "address"
                }
            ],
            "name": "allowance",
            "outputs": [
                {
                    "internalType": "uint256",
                    "name": "",
                    "type": "uint256"
                }
            ],
            "stateMutability": "view",
            "type": "function"
        },
        {
            "inputs": [
                {
                    "internalType": "address",
                    "name": "spender",
                    "type": "address"
                },
                {
                    "internalType": "uint256",
                    "name": "amount",
                    "type": "uint256"
                }
            ],
            "name": "approve",
            "outputs": [
                {
                    "internalType": "bool",
                    "name": "",
                    "type": "bool"
                }
            ],
            "stateMutability": "nonpayable",
            "type": "function"
        },
        {
            "inputs": [
                {
                    "internalType": "address",
                    "name": "account",
                    "type": "address"
                }
            ],
            "name": "balanceOf",
            "outputs": [
                {
                    "internalType": "uint256",
                    "name": "",
                    "type": "uint256"
                }
            ],
            "stateMutability": "view",
            "type": "function"
        },
        {
            "inputs": [
                {
                    "internalType": "address",
                    "name": "account",
                    "type": "address"
                },
                {
                    "internalType": "bool",
                    "name": "value",
                    "type": "bool"
                }
            ],
            "name": "blacklistAddress",
            "outputs": [],
            "stateMutability": "nonpayable",
            "type": "function"
        },
        {
            "inputs": [
                {
                    "internalType": "uint256",
                    "name": "amount",
                    "type": "uint256"
                }
            ],
            "name": "burn",
            "outputs": [],
            "stateMutability": "nonpayable",
            "type": "function"
        },
        {
            "inputs": [
                {
                    "internalType": "address",
                    "name": "account",
                    "type": "address"
                },
                {
                    "internalType": "uint256",
                    "name": "amount",
                    "type": "uint256"
                }
            ],
            "name": "burnFrom",
            "outputs": [],
            "stateMutability": "nonpayable",
            "type": "function"
        },
        {
            "inputs": [
                {
                    "internalType": "address",
                    "name": "account",
                    "type": "address"
                },
                {
                    "internalType": "uint32",
                    "name": "pos",
                    "type": "uint32"
                }
            ],
            "name": "checkpoints",
            "outputs": [
                {
                    "components": [
                        {
                            "internalType": "uint32",
                            "name": "fromBlock",
                            "type": "uint32"
                        },
                        {
                            "internalType": "uint224",
                            "name": "votes",
                            "type": "uint224"
                        }
                    ],
                    "internalType": "struct ERC20Votes.Checkpoint",
                    "name": "",
                    "type": "tuple"
                }
            ],
            "stateMutability": "view",
            "type": "function"
        },
        {
            "inputs": [],
            "name": "decimals",
            "outputs": [
                {
                    "internalType": "uint8",
                    "name": "",
                    "type": "uint8"
                }
            ],
            "stateMutability": "view",
            "type": "function"
        },
        {
            "inputs": [
                {
                    "internalType": "address",
                    "name": "spender",
                    "type": "address"
                },
                {
                    "internalType": "uint256",
                    "name": "subtractedValue",
                    "type": "uint256"
                }
            ],
            "name": "decreaseAllowance",
            "outputs": [
                {
                    "internalType": "bool",
                    "name": "",
                    "type": "bool"
                }
            ],
            "stateMutability": "nonpayable",
            "type": "function"
        },
        {
            "inputs": [
                {
                    "internalType": "address",
                    "name": "delegatee",
                    "type": "address"
                }
            ],
            "name": "delegate",
            "outputs": [],
            "stateMutability": "nonpayable",
            "type": "function"
        },
        {
            "inputs": [
                {
                    "internalType": "address",
                    "name": "delegatee",
                    "type": "address"
                },
                {
                    "internalType": "uint256",
                    "name": "nonce",
                    "type": "uint256"
                },
                {
                    "internalType": "uint256",
                    "name": "expiry",
                    "type": "uint256"
                },
                {
                    "internalType": "uint8",
                    "name": "v",
                    "type": "uint8"
                },
                {
                    "internalType": "bytes32",
                    "name": "r",
                    "type": "bytes32"
                },
                {
                    "internalType": "bytes32",
                    "name": "s",
                    "type": "bytes32"
                }
            ],
            "name": "delegateBySig",
            "outputs": [],
            "stateMutability": "nonpayable",
            "type": "function"
        },
        {
            "inputs": [
                {
                    "internalType": "address",
                    "name": "account",
                    "type": "address"
                }
            ],
            "name": "delegates",
            "outputs": [
                {
                    "internalType": "address",
                    "name": "",
                    "type": "address"
                }
            ],
            "stateMutability": "view",
            "type": "function"
        },
        {
            "inputs": [],
            "name": "elysium",
            "outputs": [
                {
                    "internalType": "uint256",
                    "name": "",
                    "type": "uint256"
                }
            ],
            "stateMutability": "view",
            "type": "function"
        },
        {
            "inputs": [],
            "name": "elysiumFee",
            "outputs": [
                {
                    "internalType": "uint256",
                    "name": "",
                    "type": "uint256"
                }
            ],
            "stateMutability": "view",
            "type": "function"
        },
        {
            "inputs": [],
            "name": "fundingEnabled",
            "outputs": [
                {
                    "internalType": "bool",
                    "name": "",
                    "type": "bool"
                }
            ],
            "stateMutability": "view",
            "type": "function"
        },
        {
            "inputs": [],
            "name": "fundingFee",
            "outputs": [
                {
                    "internalType": "uint256",
                    "name": "",
                    "type": "uint256"
                }
            ],
            "stateMutability": "view",
            "type": "function"
        },
        {
            "inputs": [],
            "name": "fundingWallet",
            "outputs": [
                {
                    "internalType": "address payable",
                    "name": "",
                    "type": "address"
                }
            ],
            "stateMutability": "view",
            "type": "function"
        },
        {
            "inputs": [
                {
                    "internalType": "uint256",
                    "name": "blockNumber",
                    "type": "uint256"
                }
            ],
            "name": "getPastTotalSupply",
            "outputs": [
                {
                    "internalType": "uint256",
                    "name": "",
                    "type": "uint256"
                }
            ],
            "stateMutability": "view",
            "type": "function"
        },
        {
            "inputs": [
                {
                    "internalType": "address",
                    "name": "account",
                    "type": "address"
                },
                {
                    "internalType": "uint256",
                    "name": "blockNumber",
                    "type": "uint256"
                }
            ],
            "name": "getPastVotes",
            "outputs": [
                {
                    "internalType": "uint256",
                    "name": "",
                    "type": "uint256"
                }
            ],
            "stateMutability": "view",
            "type": "function"
        },
        {
            "inputs": [
                {
                    "internalType": "bytes32",
                    "name": "role",
                    "type": "bytes32"
                }
            ],
            "name": "getRoleAdmin",
            "outputs": [
                {
                    "internalType": "bytes32",
                    "name": "",
                    "type": "bytes32"
                }
            ],
            "stateMutability": "view",
            "type": "function"
        },
        {
            "inputs": [
                {
                    "internalType": "address",
                    "name": "account",
                    "type": "address"
                }
            ],
            "name": "getVotes",
            "outputs": [
                {
                    "internalType": "uint256",
                    "name": "",
                    "type": "uint256"
                }
            ],
            "stateMutability": "view",
            "type": "function"
        },
        {
            "inputs": [
                {
                    "internalType": "bytes32",
                    "name": "role",
                    "type": "bytes32"
                },
                {
                    "internalType": "address",
                    "name": "account",
                    "type": "address"
                }
            ],
            "name": "grantRole",
            "outputs": [],
            "stateMutability": "nonpayable",
            "type": "function"
        },
        {
            "inputs": [
                {
                    "internalType": "bytes32",
                    "name": "role",
                    "type": "bytes32"
                },
                {
                    "internalType": "address",
                    "name": "account",
                    "type": "address"
                }
            ],
            "name": "hasRole",
            "outputs": [
                {
                    "internalType": "bool",
                    "name": "",
                    "type": "bool"
                }
            ],
            "stateMutability": "view",
            "type": "function"
        },
        {
            "inputs": [
                {
                    "internalType": "address",
                    "name": "spender",
                    "type": "address"
                },
                {
                    "internalType": "uint256",
                    "name": "addedValue",
                    "type": "uint256"
                }
            ],
            "name": "increaseAllowance",
            "outputs": [
                {
                    "internalType": "bool",
                    "name": "",
                    "type": "bool"
                }
            ],
            "stateMutability": "nonpayable",
            "type": "function"
        },
        {
            "inputs": [],
            "name": "name",
            "outputs": [
                {
                    "internalType": "string",
                    "name": "",
                    "type": "string"
                }
            ],
            "stateMutability": "view",
            "type": "function"
        },
        {
            "inputs": [
                {
                    "internalType": "address",
                    "name": "owner",
                    "type": "address"
                }
            ],
            "name": "nonces",
            "outputs": [
                {
                    "internalType": "uint256",
                    "name": "",
                    "type": "uint256"
                }
            ],
            "stateMutability": "view",
            "type": "function"
        },
        {
            "inputs": [
                {
                    "internalType": "address",
                    "name": "account",
                    "type": "address"
                }
            ],
            "name": "numCheckpoints",
            "outputs": [
                {
                    "internalType": "uint32",
                    "name": "",
                    "type": "uint32"
                }
            ],
            "stateMutability": "view",
            "type": "function"
        },
        {
            "inputs": [
                {
                    "internalType": "address",
                    "name": "owner",
                    "type": "address"
                },
                {
                    "internalType": "address",
                    "name": "spender",
                    "type": "address"
                },
                {
                    "internalType": "uint256",
                    "name": "value",
                    "type": "uint256"
                },
                {
                    "internalType": "uint256",
                    "name": "deadline",
                    "type": "uint256"
                },
                {
                    "internalType": "uint8",
                    "name": "v",
                    "type": "uint8"
                },
                {
                    "internalType": "bytes32",
                    "name": "r",
                    "type": "bytes32"
                },
                {
                    "internalType": "bytes32",
                    "name": "s",
                    "type": "bytes32"
                }
            ],
            "name": "permit",
            "outputs": [],
            "stateMutability": "nonpayable",
            "type": "function"
        },
        {
            "inputs": [],
            "name": "previousToken",
            "outputs": [
                {
                    "internalType": "address",
                    "name": "",
                    "type": "address"
                }
            ],
            "stateMutability": "view",
            "type": "function"
        },
        {
            "inputs": [
                {
                    "internalType": "bytes32",
                    "name": "role",
                    "type": "bytes32"
                },
                {
                    "internalType": "address",
                    "name": "account",
                    "type": "address"
                }
            ],
            "name": "renounceRole",
            "outputs": [],
            "stateMutability": "nonpayable",
            "type": "function"
        },
        {
            "inputs": [
                {
                    "internalType": "address payable",
                    "name": "recipient",
                    "type": "address"
                }
            ],
            "name": "rescueEth",
            "outputs": [],
            "stateMutability": "nonpayable",
            "type": "function"
        },
        {
            "inputs": [
                {
                    "internalType": "address",
                    "name": "recipient",
                    "type": "address"
                },
                {
                    "internalType": "address",
                    "name": "token",
                    "type": "address"
                },
                {
                    "internalType": "uint256",
                    "name": "amount",
                    "type": "uint256"
                }
            ],
            "name": "rescueTokens",
            "outputs": [
                {
                    "internalType": "bool",
                    "name": "",
                    "type": "bool"
                }
            ],
            "stateMutability": "nonpayable",
            "type": "function"
        },
        {
            "inputs": [
                {
                    "internalType": "address",
                    "name": "recipient",
                    "type": "address"
                },
                {
                    "internalType": "contract IERC20",
                    "name": "token",
                    "type": "address"
                },
                {
                    "internalType": "uint256",
                    "name": "amount",
                    "type": "uint256"
                }
            ],
            "name": "rescueTokensSafe",
            "outputs": [
                {
                    "internalType": "bool",
                    "name": "",
                    "type": "bool"
                }
            ],
            "stateMutability": "nonpayable",
            "type": "function"
        },
        {
            "inputs": [
                {
                    "internalType": "bytes32",
                    "name": "role",
                    "type": "bytes32"
                },
                {
                    "internalType": "address",
                    "name": "account",
                    "type": "address"
                }
            ],
            "name": "revokeRole",
            "outputs": [],
            "stateMutability": "nonpayable",
            "type": "function"
        },
        {
            "inputs": [
                {
                    "internalType": "bool",
                    "name": "_setting",
                    "type": "bool"
                }
            ],
            "name": "setFundingSells",
            "outputs": [],
            "stateMutability": "nonpayable",
            "type": "function"
        },
        {
            "inputs": [
                {
                    "internalType": "address payable",
                    "name": "_wallet",
                    "type": "address"
                }
            ],
            "name": "setFundingWallet",
            "outputs": [],
            "stateMutability": "nonpayable",
            "type": "function"
        },
        {
            "inputs": [
                {
                    "internalType": "uint256",
                    "name": "_tokenThreshold",
                    "type": "uint256"
                }
            ],
            "name": "setTokenThreshold",
            "outputs": [],
            "stateMutability": "nonpayable",
            "type": "function"
        },
        {
            "inputs": [
                {
                    "internalType": "bytes4",
                    "name": "interfaceId",
                    "type": "bytes4"
                }
            ],
            "name": "supportsInterface",
            "outputs": [
                {
                    "internalType": "bool",
                    "name": "",
                    "type": "bool"
                }
            ],
            "stateMutability": "view",
            "type": "function"
        },
        {
            "inputs": [],
            "name": "symbol",
            "outputs": [
                {
                    "internalType": "string",
                    "name": "",
                    "type": "string"
                }
            ],
            "stateMutability": "view",
            "type": "function"
        },
        {
            "inputs": [],
            "name": "tokenThreshold",
            "outputs": [
                {
                    "internalType": "uint256",
                    "name": "",
                    "type": "uint256"
                }
            ],
            "stateMutability": "view",
            "type": "function"
        },
        {
            "inputs": [],
            "name": "totalSupply",
            "outputs": [
                {
                    "internalType": "uint256",
                    "name": "",
                    "type": "uint256"
                }
            ],
            "stateMutability": "view",
            "type": "function"
        },
        {
            "inputs": [
                {
                    "internalType": "address",
                    "name": "recipient",
                    "type": "address"
                },
                {
                    "internalType": "uint256",
                    "name": "amount",
                    "type": "uint256"
                }
            ],
            "name": "transfer",
            "outputs": [
                {
                    "internalType": "bool",
                    "name": "",
                    "type": "bool"
                }
            ],
            "stateMutability": "nonpayable",
            "type": "function"
        },
        {
            "inputs": [
                {
                    "internalType": "address",
                    "name": "sender",
                    "type": "address"
                },
                {
                    "internalType": "address",
                    "name": "recipient",
                    "type": "address"
                },
                {
                    "internalType": "uint256",
                    "name": "amount",
                    "type": "uint256"
                }
            ],
            "name": "transferFrom",
            "outputs": [
                {
                    "internalType": "bool",
                    "name": "",
                    "type": "bool"
                }
            ],
            "stateMutability": "nonpayable",
            "type": "function"
        },
        {
            "inputs": [
                {
                    "internalType": "address",
                    "name": "account",
                    "type": "address"
                },
                {
                    "internalType": "bool",
                    "name": "setting",
                    "type": "bool"
                }
            ],
            "name": "whitelistAddress",
            "outputs": [],
            "stateMutability": "nonpayable",
            "type": "function"
        }
    ],
    "bytecode": "6101606040527f6e71edae12b1b97f4d1f60370fef10105fa2faae0126114a169c64845d6126c961014052612710600e55600a60105560fa60115560126200004990600a62000cf1565b62000057906103e862000d02565b6012556014805460ff60a81b1916600160a81b1790553480156200007a57600080fd5b506040805180820182526003808252620a484b60eb1b60208084018290528451808601865260018152603160f81b818301528551808701875284815280830184815287518089019098528588529287019390935282519495869591949092620000e39262000b42565b508051620000f990600490602084019062000b42565b5050825160209384012082519284019290922060e08390526101008190524660a0818152604080517f8b73c3c69bb8fe3d512ecc4cf759cc79239f7b179b0ffacaa9a75d522b39400f818901819052818301979097526060810194909452608080850193909352308483018190528151808603909301835260c09485019091528151919096012090529290925261012052506200019a905060003362000212565b620001b5600080516020620045b78339815191523362000212565b620001dd33620001c86012600a62000cf1565b620001d7906298968062000d02565b62000222565b601380546001600160a01b03191633908117909155620001ff90600162000239565b6200020c30600162000239565b62000dc6565b6200021e82826200038a565b5050565b6200021e82826200041460201b620016a71760201c565b62000246600033620004c7565b8062000268575062000268600080516020620045b783398151915233620004c7565b620002ba5760405162461bcd60e51b815260206004820152601760248201527f496e73756666696369656e742070726976696c6567657300000000000000000060448201526064015b60405180910390fd5b6001600160a01b0382166000908152600a602052604090205460ff16151581151514156200032b5760405162461bcd60e51b815260206004820152601f60248201527f5242583a204163636f756e7420616c72656164792061742073657474696e67006044820152606401620002b1565b6001600160a01b0382166000818152600a6020908152604091829020805460ff191685151590811790915591519182527f33e0bf3ce98fac4118d5a0a8fe49e83b6acdfdef32871c9eca20e1528d7701ba910160405180910390a25050565b620003968282620004c7565b6200021e5760008281526005602090815260408083206001600160a01b03851684529091529020805460ff19166001179055620003d03390565b6001600160a01b0316816001600160a01b0316837f2f8788117e7eff1d82e926ec794901d17c78024a50270940304540a733656f0d60405160405180910390a45050565b6200042b8282620004f460201b620017371760201c565b6001600160e01b036200043f620005f18216565b1115620004a85760405162461bcd60e51b815260206004820152603060248201527f4552433230566f7465733a20746f74616c20737570706c79207269736b73206f60448201526f766572666c6f77696e6720766f74657360801b6064820152608401620002b1565b620004c160096200182a620005f760201b17836200060c565b50505050565b60008281526005602090815260408083206001600160a01b038516845290915290205460ff165b92915050565b6001600160a01b0382166200054c5760405162461bcd60e51b815260206004820152601f60248201527f45524332303a206d696e7420746f20746865207a65726f2061646472657373006044820152606401620002b1565b6200055a60008383620007be565b80600260008282546200056e919062000d24565b90915550506001600160a01b038216600090815260208190526040812080548392906200059d90849062000d24565b90915550506040518181526001600160a01b038316906000907fddf252ad1be2c89b69c2b068fc378daa952ba7f163c4a11628f55a4df523b3ef9060200160405180910390a36200021e600083836200087d565b60025490565b600062000605828462000d24565b9392505050565b8254600090819080156200065e57856200062860018362000d3f565b815481106200063b576200063b62000d59565b60009182526020909120015464010000000090046001600160e01b031662000661565b60005b6001600160e01b031692506200067883858760201c565b9150600081118015620006bc575043866200069560018462000d3f565b81548110620006a857620006a862000d59565b60009182526020909120015463ffffffff16145b156200073057620006d8826200089560201b620018361760201c565b86620006e660018462000d3f565b81548110620006f957620006f962000d59565b9060005260206000200160000160046101000a8154816001600160e01b0302191690836001600160e01b03160217905550620007b5565b85604051806040016040528062000752436200090460201b620018a31760201c565b63ffffffff16815260200162000773856200089560201b620018361760201c565b6001600160e01b0390811690915282546001810184556000938452602093849020835194909301519091166401000000000263ffffffff909316929092179101555b50935093915050565b6001600160a01b0383166000908152600c602052604090205460ff1662000860576014546040516370a0823160e01b81526001600160a01b0380861660048301526200085e9286929116906370a0823190602401602060405180830381865afa15801562000830573d6000803e3d6000fd5b505050506040513d601f19601f8201168201806040525081019062000856919062000d6f565b60016200096b565b505b620008788383836200087860201b620009781760201c565b505050565b62000878838383620009c560201b620019081760201c565b60006001600160e01b03821115620009005760405162461bcd60e51b815260206004820152602760248201527f53616665436173743a2076616c756520646f65736e27742066697420696e20326044820152663234206269747360c81b6064820152608401620002b1565b5090565b600063ffffffff821115620009005760405162461bcd60e51b815260206004820152602660248201527f53616665436173743a2076616c756520646f65736e27742066697420696e203360448201526532206269747360d01b6064820152608401620002b1565b6001600160a01b038316600090815260208190526040812083905581620009935781620009ba565b6001600160a01b0384166000908152600c60205260409020805460ff191660019081179091555b506001949350505050565b620009dd8383836200087860201b620009781760201c565b6001600160a01b03838116600090815260076020526040808220548584168352912054620008789291821691168381831480159062000a1c5750600081115b1562000878576001600160a01b0383161562000aa9576001600160a01b03831660009081526008602090815260408220829162000a66919062000b34901b6200193a17856200060c565b91509150846001600160a01b0316600080516020620045d7833981519152838360405162000a9e929190918252602082015260400190565b60405180910390a250505b6001600160a01b0382161562000878576001600160a01b03821660009081526008602090815260408220829162000aed9190620005f7901b6200182a17856200060c565b91509150836001600160a01b0316600080516020620045d7833981519152838360405162000b25929190918252602082015260400190565b60405180910390a25050505050565b600062000605828462000d3f565b82805462000b509062000d89565b90600052602060002090601f01602090048101928262000b74576000855562000bbf565b82601f1062000b8f57805160ff191683800117855562000bbf565b8280016001018555821562000bbf579182015b8281111562000bbf57825182559160200191906001019062000ba2565b50620009009291505b8082111562000900576000815560010162000bc8565b634e487b7160e01b600052601160045260246000fd5b600181815b8085111562000c3557816000190482111562000c195762000c1962000bde565b8085161562000c2757918102915b93841c939080029062000bf9565b509250929050565b60008262000c4e57506001620004ee565b8162000c5d57506000620004ee565b816001811462000c76576002811462000c815762000ca1565b6001915050620004ee565b60ff84111562000c955762000c9562000bde565b50506001821b620004ee565b5060208310610133831016604e8410600b841016171562000cc6575081810a620004ee565b62000cd2838362000bf4565b806000190482111562000ce95762000ce962000bde565b029392505050565b60006200060560ff84168362000c3d565b600081600019048311821515161562000d1f5762000d1f62000bde565b500290565b6000821982111562000d3a5762000d3a62000bde565b500190565b60008282101562000d545762000d5462000bde565b500390565b634e487b7160e01b600052603260045260246000fd5b60006020828403121562000d8257600080fd5b5051919050565b600181811c9082168062000d9e57607f821691505b6020821081141562000dc057634e487b7160e01b600052602260045260246000fd5b50919050565b60805160a05160c05160e05161010051610120516101405161379662000e2160003960006114ed01526000611dec01526000611e3b01526000611e1601526000611d6f01526000611d9901526000611dc301526137966000f3fe608060405234801561001057600080fd5b50600436106102d65760003560e01c80636fcfff4511610182578063a9059cbb116100e9578063d505accf116100a2578063dd62ed3e1161007c578063dd62ed3e146106b1578063e10e95c9146106ea578063f1127ed8146106fe578063f395af961461073b57600080fd5b8063d505accf14610682578063d547741f14610695578063da193d48146106a857600080fd5b8063a9059cbb146105bd578063b3f579f5146105d0578063b9a45aac14610636578063c3cda52014610649578063cea9d26f1461065c578063ceacd4511461066f57600080fd5b806391d148541161013b57806391d148541461056157806395d89b41146105745780639819d24e1461057c5780639ab24eb01461058f578063a217fddf146105a2578063a457c2d7146105aa57600080fd5b80636fcfff45146104da57806370a082311461050257806379cc6790146105155780637ecebe001461052857806387bde5491461053b5780638e539e8c1461054e57600080fd5b806336568abe1161024157806342966c68116101fa57806359a7cb79116101d457806359a7cb79146104ac5780635c19a95c146104b55780635d16e120146104c857806366692ff0146104d157600080fd5b806342966c681461045a578063455a43961461046d578063587cde1e1461048057600080fd5b806336568abe146103d057806339509351146103e35780633a46b1a8146103f65780633b1ab44c146104095780633c4b40b81461041c578063412131fa1461044757600080fd5b8063248a9ca311610293578063248a9ca3146103655780632eee963b146103885780632f2ff15d1461039d578063313ce567146103b05780633410fe6e146103bf5780633644e515146103c857600080fd5b8063017b0a30146102db57806301ffc9a7146102f057806306fdde0314610318578063095ea7b31461032d57806318160ddd1461034057806323b872dd14610352575b600080fd5b6102ee6102e9366004613156565b61074e565b005b6103036102fe366004613173565b6107c7565b60405190151581526020015b60405180910390f35b6103206107fe565b60405161030f91906131c9565b61030361033b366004613211565b610890565b6002545b60405190815260200161030f565b61030361036036600461323d565b6108a6565b61034461037336600461327e565b60009081526005602052604090206001015490565b61034460008051602061374183398151915281565b6102ee6103ab366004613297565b610952565b6040516012815260200161030f565b610344600e5481565b61034461097d565b6102ee6103de366004613297565b61098c565b6103036103f1366004613211565b610a0a565b610344610404366004613211565b610a46565b6102ee6104173660046132c7565b610ab9565b60135461042f906001600160a01b031681565b6040516001600160a01b03909116815260200161030f565b6102ee6104553660046132e4565b610b15565b6102ee61046836600461327e565b610bd5565b6102ee61047b36600461332f565b610be2565b61042f61048e3660046132c7565b6001600160a01b039081166000908152600760205260409020541690565b610344600f5481565b6102ee6104c33660046132c7565b610c5f565b61034460115481565b61034460125481565b6104ed6104e83660046132c7565b610c69565b60405163ffffffff909116815260200161030f565b6103446105103660046132c7565b610c8b565b6102ee610523366004613211565b610d5c565b6103446105363660046132c7565b610ddd565b6102ee61054936600461327e565b610dfb565b61034461055c36600461327e565b610e52565b61030361056f366004613297565b610eae565b610320610ed9565b6102ee61058a3660046132c7565b610ee8565b61034461059d3660046132c7565b610f2f565b610344600081565b6103036105b8366004613211565b610fb6565b6103036105cb366004613211565b61104f565b61060c6105de3660046132c7565b600d602052600090815260409020805460018201546002909201546001600160a01b03918216928216911683565b604080516001600160a01b039485168152928416602084015292169181019190915260600161030f565b6102ee61064436600461332f565b61105c565b6102ee610657366004613373565b61116f565b61030361066a36600461323d565b6112a5565b61030361067d36600461323d565b6113d4565b6102ee6106903660046133cd565b611499565b6102ee6106a3366004613297565b6115fd565b61034460105481565b6103446106bf36600461343b565b6001600160a01b03918216600090815260016020908152604080832093909416825291909152205490565b60145461030390600160a81b900460ff1681565b61071161070c366004613469565b611623565b60408051825163ffffffff1681526020928301516001600160e01b0316928101929092520161030f565b60145461042f906001600160a01b031681565b600061075a8133611946565b610765600033610eae565b80610783575061078360008051602061374183398151915233610eae565b6107a85760405162461bcd60e51b815260040161079f906134a0565b60405180910390fd5b5060148054911515600160a81b0260ff60a81b19909216919091179055565b60006001600160e01b03198216637965db0b60e01b14806107f857506301ffc9a760e01b6001600160e01b03198316145b92915050565b60606003805461080d906134d7565b80601f0160208091040260200160405190810160405280929190818152602001828054610839906134d7565b80156108865780601f1061085b57610100808354040283529160200191610886565b820191906000526020600020905b81548152906001019060200180831161086957829003601f168201915b5050505050905090565b600061089d3384846119aa565b50600192915050565b60006108b3848484611ace565b6001600160a01b0384166000908152600160209081526040808320338452909152902054828110156109385760405162461bcd60e51b815260206004820152602860248201527f45524332303a207472616e7366657220616d6f756e74206578636565647320616044820152676c6c6f77616e636560c01b606482015260840161079f565b61094585338584036119aa565b60019150505b9392505050565b60008281526005602052604090206001015461096e8133611946565b6109788383611cdc565b505050565b6000610987611d62565b905090565b6001600160a01b03811633146109fc5760405162461bcd60e51b815260206004820152602f60248201527f416363657373436f6e74726f6c3a2063616e206f6e6c792072656e6f756e636560448201526e103937b632b9903337b91039b2b63360891b606482015260840161079f565b610a068282611e89565b5050565b3360008181526001602090815260408083206001600160a01b0387168452909152812054909161089d918590610a41908690613522565b6119aa565b6000438210610a975760405162461bcd60e51b815260206004820152601f60248201527f4552433230566f7465733a20626c6f636b206e6f7420796574206d696e656400604482015260640161079f565b6001600160a01b038316600090815260086020526040902061094b9083611ef0565b610ac4600033610eae565b610ae05760405162461bcd60e51b815260040161079f906134a0565b6040516001600160a01b038216904780156108fc02916000818181858888f19350505050158015610a06573d6000803e3d6000fd5b610b20600033610eae565b80610b3e5750610b3e60008051602061374183398151915233610eae565b610b5a5760405162461bcd60e51b815260040161079f906134a0565b6001600160a01b038381166000818152600d602052604080822080546001600160a01b03199081168517825560018201805482168988169081179091556002909201805490911695871695909517909455517fd482e95abb3d8f5eaf8f07dbd4c204ea55842bacc8cf5d530aa104716551e2169190a3505050565b610bdf3382611fad565b50565b6000610bee8133611946565b610bf9600033610eae565b80610c175750610c1760008051602061374183398151915233610eae565b610c335760405162461bcd60e51b815260040161079f906134a0565b506001600160a01b03919091166000908152600b60205260409020805460ff1916911515919091179055565b610bdf3382611fb7565b6001600160a01b0381166000908152600860205260408120546107f8906118a3565b6001600160a01b0381166000908152600c602052604081205460ff1615610cca576001600160a01b0382166000908152602081905260409020546107f8565b6014546040516370a0823160e01b81526001600160a01b03848116600483015260009216906370a0823190602401602060405180830381865afa158015610d15573d6000803e3d6000fd5b505050506040513d601f19601f82011682018060405250810190610d39919061353a565b6001600160a01b03841660009081526020819052604090205461094b9190613522565b6000610d6883336106bf565b905081811015610dc65760405162461bcd60e51b8152602060048201526024808201527f45524332303a206275726e20616d6f756e74206578636565647320616c6c6f77604482015263616e636560e01b606482015260840161079f565b610dd383338484036119aa565b6109788383611fad565b6001600160a01b0381166000908152600660205260408120546107f8565b6000610e078133611946565b610e12600033610eae565b80610e305750610e3060008051602061374183398151915233610eae565b610e4c5760405162461bcd60e51b815260040161079f906134a0565b50601255565b6000438210610ea35760405162461bcd60e51b815260206004820152601f60248201527f4552433230566f7465733a20626c6f636b206e6f7420796574206d696e656400604482015260640161079f565b6107f8600983611ef0565b60009182526005602090815260408084206001600160a01b0393909316845291905290205460ff1690565b60606004805461080d906134d7565b6000610ef48133611946565b50601380546001600160a01b039092166001600160a01b0319909216821790556000908152600a60205260409020805460ff19166001179055565b6001600160a01b0381166000908152600860205260408120548015610fa3576001600160a01b0383166000908152600860205260409020610f71600183613553565b81548110610f8157610f8161356a565b60009182526020909120015464010000000090046001600160e01b0316610fa6565b60005b6001600160e01b03169392505050565b3360009081526001602090815260408083206001600160a01b0386168452909152812054828110156110385760405162461bcd60e51b815260206004820152602560248201527f45524332303a2064656372656173656420616c6c6f77616e63652062656c6f77604482015264207a65726f60d81b606482015260840161079f565b61104533858584036119aa565b5060019392505050565b600061089d338484611ace565b611067600033610eae565b80611085575061108560008051602061374183398151915233610eae565b6110a15760405162461bcd60e51b815260040161079f906134a0565b6001600160a01b0382166000908152600a602052604090205460ff16151581151514156111105760405162461bcd60e51b815260206004820152601f60248201527f5242583a204163636f756e7420616c72656164792061742073657474696e6700604482015260640161079f565b6001600160a01b0382166000818152600a6020908152604091829020805460ff191685151590811790915591519182527f33e0bf3ce98fac4118d5a0a8fe49e83b6acdfdef32871c9eca20e1528d7701ba910160405180910390a25050565b834211156111bf5760405162461bcd60e51b815260206004820152601d60248201527f4552433230566f7465733a207369676e61747572652065787069726564000000604482015260640161079f565b604080517fe48329057bfd03d55e49b547132e39cffd9c1820ad7b9d4c5307691425d15adf60208201526001600160a01b038816918101919091526060810186905260808101859052600090611239906112319060a00160405160208183030381529060405280519060200120612046565b858585612094565b9050611244816120bc565b86146112925760405162461bcd60e51b815260206004820152601960248201527f4552433230566f7465733a20696e76616c6964206e6f6e636500000000000000604482015260640161079f565b61129c8188611fb7565b50505050505050565b60006112b18133610eae565b806112cf57506112cf60008051602061374183398151915233610eae565b6112eb5760405162461bcd60e51b815260040161079f906134a0565b6001600160a01b038084166000818152600d602052604090205490911614156113565760405162461bcd60e51b815260206004820152601d60248201527f43616e2774207472616e73666572206f7574204c5020746f6b656e7321000000604482015260640161079f565b60405163a9059cbb60e01b81526001600160a01b0385811660048301526024820184905284169063a9059cbb906044016020604051808303816000875af11580156113a5573d6000803e3d6000fd5b505050506040513d601f19601f820116820180604052508101906113c99190613580565b506001949350505050565b60006113e08133610eae565b806113fe57506113fe60008051602061374183398151915233610eae565b61141a5760405162461bcd60e51b815260040161079f906134a0565b6001600160a01b038084166000818152600d602052604090205490911614156114855760405162461bcd60e51b815260206004820152601d60248201527f43616e2774207472616e73666572206f7574204c5020746f6b656e7321000000604482015260640161079f565b6110456001600160a01b03841685846120e4565b834211156114e95760405162461bcd60e51b815260206004820152601d60248201527f45524332305065726d69743a206578706972656420646561646c696e65000000604482015260640161079f565b60007f00000000000000000000000000000000000000000000000000000000000000008888886115188c6120bc565b6040805160208101969096526001600160a01b0394851690860152929091166060840152608083015260a082015260c0810186905260e001604051602081830303815290604052805190602001209050600061157382612046565b9050600061158382878787612094565b9050896001600160a01b0316816001600160a01b0316146115e65760405162461bcd60e51b815260206004820152601e60248201527f45524332305065726d69743a20696e76616c6964207369676e61747572650000604482015260640161079f565b6115f18a8a8a6119aa565b50505050505050505050565b6000828152600560205260409020600101546116198133611946565b6109788383611e89565b60408051808201909152600080825260208201526001600160a01b0383166000908152600860205260409020805463ffffffff84169081106116675761166761356a565b60009182526020918290206040805180820190915291015463ffffffff8116825264010000000090046001600160e01b0316918101919091529392505050565b6116b18282611737565b6002546001600160e01b0310156117235760405162461bcd60e51b815260206004820152603060248201527f4552433230566f7465733a20746f74616c20737570706c79207269736b73206f60448201526f766572666c6f77696e6720766f74657360801b606482015260840161079f565b611731600961182a83612136565b50505050565b6001600160a01b03821661178d5760405162461bcd60e51b815260206004820152601f60248201527f45524332303a206d696e7420746f20746865207a65726f206164647265737300604482015260640161079f565b611799600083836122af565b80600260008282546117ab9190613522565b90915550506001600160a01b038216600090815260208190526040812080548392906117d8908490613522565b90915550506040518181526001600160a01b038316906000907fddf252ad1be2c89b69c2b068fc378daa952ba7f163c4a11628f55a4df523b3ef9060200160405180910390a3610a0660008383612349565b600061094b8284613522565b60006001600160e01b0382111561189f5760405162461bcd60e51b815260206004820152602760248201527f53616665436173743a2076616c756520646f65736e27742066697420696e20326044820152663234206269747360c81b606482015260840161079f565b5090565b600063ffffffff82111561189f5760405162461bcd60e51b815260206004820152602660248201527f53616665436173743a2076616c756520646f65736e27742066697420696e203360448201526532206269747360d01b606482015260840161079f565b6001600160a01b0383811660009081526007602052604080822054858416835291205461097892918216911683612354565b600061094b8284613553565b6119508282610eae565b610a0657611968816001600160a01b03166014612491565b611973836020612491565b60405160200161198492919061359d565b60408051601f198184030181529082905262461bcd60e51b825261079f916004016131c9565b6001600160a01b038316611a0c5760405162461bcd60e51b8152602060048201526024808201527f45524332303a20617070726f76652066726f6d20746865207a65726f206164646044820152637265737360e01b606482015260840161079f565b6001600160a01b038216611a6d5760405162461bcd60e51b815260206004820152602260248201527f45524332303a20617070726f766520746f20746865207a65726f206164647265604482015261737360f01b606482015260840161079f565b6001600160a01b0383811660008181526001602090815260408083209487168084529482529182902085905590518481527f8c5be1e5ebec7d5bd14f71427d1e84f3dd0314c0f7b2291e5b200ac8c7c3b925910160405180910390a3505050565b6001600160a01b0383166000908152600b602052604090205460ff16158015611b1057506001600160a01b0382166000908152600b602052604090205460ff16155b611b5c5760405162461bcd60e51b815260206004820152601960248201527f426c61636b6c6973746564206164647265737320676976656e00000000000000604482015260640161079f565b6000611b6730610c8b565b90506000601254821015611b7b5781611b7f565b6012545b9050600f544311158015611bad57506001600160a01b038086166000818152600d6020526040902054909116145b15611be957611bbd85858561262d565b611be384600e54856101f4611bd29190613612565b611bdc9190613631565b600061280c565b50611cd5565b601454600160a81b900460ff168015611c0c5750601454600160a01b900460ff16155b8015611c3257506001600160a01b038085166000818152600d6020526040902054909116145b8015611c5757506001600160a01b0385166000908152600a602052604090205460ff16155b8015611c7c57506001600160a01b0384166000908152600a602052604090205460ff16155b15611cca576000600e5460115485611c949190613612565b611c9e9190613631565b9050611caa8185613553565b9350611cb786308361262d565b611be3611cc48383613522565b8661285d565b611cd585858561262d565b5050505050565b611ce68282610eae565b610a065760008281526005602090815260408083206001600160a01b03851684529091529020805460ff19166001179055611d1e3390565b6001600160a01b0316816001600160a01b0316837f2f8788117e7eff1d82e926ec794901d17c78024a50270940304540a733656f0d60405160405180910390a45050565b6000306001600160a01b037f000000000000000000000000000000000000000000000000000000000000000016148015611dbb57507f000000000000000000000000000000000000000000000000000000000000000046145b15611de557507f000000000000000000000000000000000000000000000000000000000000000090565b50604080517f00000000000000000000000000000000000000000000000000000000000000006020808301919091527f0000000000000000000000000000000000000000000000000000000000000000828401527f000000000000000000000000000000000000000000000000000000000000000060608301524660808301523060a0808401919091528351808403909101815260c0909201909252805191012090565b611e938282610eae565b15610a065760008281526005602090815260408083206001600160a01b0385168085529252808320805460ff1916905551339285917ff6391f5c32d9c69d2a47ea670b442974b53935d1edc7fd64eb21e047a839171b9190a45050565b8154600090815b81811015611f54576000611f0b8284612ac2565b905084868281548110611f2057611f2061356a565b60009182526020909120015463ffffffff161115611f4057809250611f4e565b611f4b816001613522565b91505b50611ef7565b8115611f985784611f66600184613553565b81548110611f7657611f7661356a565b60009182526020909120015464010000000090046001600160e01b0316611f9b565b60005b6001600160e01b031695945050505050565b610a068282612add565b6001600160a01b0382811660009081526007602052604081205490911690611fde84610c8b565b6001600160a01b0385811660008181526007602052604080822080546001600160a01b031916898616908117909155905194955093928616927f3134e8a2e6d97e929a7e54011ea5485d7d196dd5f0ba4d4ef95803e8e3fc257f9190a4611731828483612354565b60006107f8612053611d62565b8360405161190160f01b6020820152602281018390526042810182905260009060620160405160208183030381529060405280519060200120905092915050565b60008060006120a587878787612af5565b915091506120b281612be2565b5095945050505050565b6001600160a01b03811660009081526006602052604090208054600181018255905b50919050565b604080516001600160a01b038416602482015260448082018490528251808303909101815260649091019091526020810180516001600160e01b031663a9059cbb60e01b179052610978908490612d9d565b825460009081908015612181578561214f600183613553565b8154811061215f5761215f61356a565b60009182526020909120015464010000000090046001600160e01b0316612184565b60005b6001600160e01b0316925061219d83858763ffffffff16565b91506000811180156121db575043866121b7600184613553565b815481106121c7576121c761356a565b60009182526020909120015463ffffffff16145b1561223b576121e982611836565b866121f5600184613553565b815481106122055761220561356a565b9060005260206000200160000160046101000a8154816001600160e01b0302191690836001600160e01b031602179055506122a6565b856040518060400160405280612250436118a3565b63ffffffff16815260200161226485611836565b6001600160e01b0390811690915282546001810184556000938452602093849020835194909301519091166401000000000263ffffffff909316929092179101555b50935093915050565b6001600160a01b0383166000908152600c602052604090205460ff16610978576014546040516370a0823160e01b81526001600160a01b0380861660048301526117319286929116906370a0823190602401602060405180830381865afa15801561231e573d6000803e3d6000fd5b505050506040513d601f19601f82011682018060405250810190612342919061353a565b600161280c565b610978838383611908565b816001600160a01b0316836001600160a01b0316141580156123765750600081115b15610978576001600160a01b03831615612404576001600160a01b038316600090815260086020526040812081906123b19061193a85612136565b91509150846001600160a01b03167fdec2bacdd2f05b59de34da9b523dff8be42e5e38e818c82fdb0bae774387a72483836040516123f9929190918252602082015260400190565b60405180910390a250505b6001600160a01b03821615610978576001600160a01b0382166000908152600860205260408120819061243a9061182a85612136565b91509150836001600160a01b03167fdec2bacdd2f05b59de34da9b523dff8be42e5e38e818c82fdb0bae774387a7248383604051612482929190918252602082015260400190565b60405180910390a25050505050565b606060006124a0836002613612565b6124ab906002613522565b67ffffffffffffffff8111156124c3576124c3613653565b6040519080825280601f01601f1916602001820160405280156124ed576020820181803683370190505b509050600360fc1b816000815181106125085761250861356a565b60200101906001600160f81b031916908160001a905350600f60fb1b816001815181106125375761253761356a565b60200101906001600160f81b031916908160001a905350600061255b846002613612565b612566906001613522565b90505b60018111156125de576f181899199a1a9b1b9c1cb0b131b232b360811b85600f166010811061259a5761259a61356a565b1a60f81b8282815181106125b0576125b061356a565b60200101906001600160f81b031916908160001a90535060049490941c936125d781613669565b9050612569565b50831561094b5760405162461bcd60e51b815260206004820181905260248201527f537472696e67733a20686578206c656e67746820696e73756666696369656e74604482015260640161079f565b6001600160a01b0383166126915760405162461bcd60e51b815260206004820152602560248201527f45524332303a207472616e736665722066726f6d20746865207a65726f206164604482015264647265737360d81b606482015260840161079f565b6001600160a01b0382166126f35760405162461bcd60e51b815260206004820152602360248201527f45524332303a207472616e7366657220746f20746865207a65726f206164647260448201526265737360e81b606482015260840161079f565b6126fe8383836122af565b6001600160a01b038316600090815260208190526040902054818110156127765760405162461bcd60e51b815260206004820152602660248201527f45524332303a207472616e7366657220616d6f756e7420657863656564732062604482015265616c616e636560d01b606482015260840161079f565b6001600160a01b038085166000908152602081905260408082208585039055918516815290812080548492906127ad908490613522565b92505081905550826001600160a01b0316846001600160a01b03167fddf252ad1be2c89b69c2b068fc378daa952ba7f163c4a11628f55a4df523b3ef846040516127f991815260200190565b60405180910390a3611731848484612349565b6001600160a01b03831660009081526020819052604081208390558161283257816113c9565b5050506001600160a01b03166000908152600c60205260409020805460ff1916600190811790915590565b60148054600160a01b60ff60a01b199091161790556001600160a01b038181166000908152600d60209081526040808320815160608082018452825487168252600183015487169482018590526002928301549096168184018190528351838152968701909352949193919081602001602082028036833701905050905030816000815181106128ef576128ef61356a565b60200260200101906001600160a01b031690816001600160a01b03168152505082816001815181106129235761292361356a565b60200260200101906001600160a01b031690816001600160a01b03168152505061294e3083886119aa565b816001600160a01b031663ad5c46486040518163ffffffff1660e01b8152600401602060405180830381865afa15801561298c573d6000803e3d6000fd5b505050506040513d601f19601f820116820180604052508101906129b09190613680565b6001600160a01b031684604001516001600160a01b03161415612a3f5760135460405163791ac94760e01b81526001600160a01b038481169263791ac94792612a08928b92600092889290911690429060040161369d565b600060405180830381600087803b158015612a2257600080fd5b505af1158015612a36573d6000803e3d6000fd5b50505050612aad565b601354604051635c11d79560e01b81526001600160a01b0384811692635c11d79592612a7a928b92600092889290911690429060040161369d565b600060405180830381600087803b158015612a9457600080fd5b505af1158015612aa8573d6000803e3d6000fd5b505050505b50506014805460ff60a01b1916905550505050565b6000612ad16002848418613631565b61094b90848416613522565b612ae78282612e6f565b611731600961193a83612136565b6000807f7fffffffffffffffffffffffffffffff5d576e7357a4501ddfe92f46681b20a0831115612b2c5750600090506003612bd9565b8460ff16601b14158015612b4457508460ff16601c14155b15612b555750600090506004612bd9565b6040805160008082526020820180845289905260ff881692820192909252606081018690526080810185905260019060a0016020604051602081039080840390855afa158015612ba9573d6000803e3d6000fd5b5050604051601f1901519150506001600160a01b038116612bd257600060019250925050612bd9565b9150600090505b94509492505050565b6000816004811115612bf657612bf661370e565b1415612bff5750565b6001816004811115612c1357612c1361370e565b1415612c615760405162461bcd60e51b815260206004820152601860248201527f45434453413a20696e76616c6964207369676e61747572650000000000000000604482015260640161079f565b6002816004811115612c7557612c7561370e565b1415612cc35760405162461bcd60e51b815260206004820152601f60248201527f45434453413a20696e76616c6964207369676e6174757265206c656e67746800604482015260640161079f565b6003816004811115612cd757612cd761370e565b1415612d305760405162461bcd60e51b815260206004820152602260248201527f45434453413a20696e76616c6964207369676e6174757265202773272076616c604482015261756560f01b606482015260840161079f565b6004816004811115612d4457612d4461370e565b1415610bdf5760405162461bcd60e51b815260206004820152602260248201527f45434453413a20696e76616c6964207369676e6174757265202776272076616c604482015261756560f01b606482015260840161079f565b6000612df2826040518060400160405280602081526020017f5361666545524332303a206c6f772d6c6576656c2063616c6c206661696c6564815250856001600160a01b0316612fd09092919063ffffffff16565b8051909150156109785780806020019051810190612e109190613580565b6109785760405162461bcd60e51b815260206004820152602a60248201527f5361666545524332303a204552433230206f7065726174696f6e20646964206e6044820152691bdd081cdd58d8d9595960b21b606482015260840161079f565b6001600160a01b038216612ecf5760405162461bcd60e51b815260206004820152602160248201527f45524332303a206275726e2066726f6d20746865207a65726f206164647265736044820152607360f81b606482015260840161079f565b612edb826000836122af565b6001600160a01b03821660009081526020819052604090205481811015612f4f5760405162461bcd60e51b815260206004820152602260248201527f45524332303a206275726e20616d6f756e7420657863656564732062616c616e604482015261636560f01b606482015260840161079f565b6001600160a01b0383166000908152602081905260408120838303905560028054849290612f7e908490613553565b90915550506040518281526000906001600160a01b038516907fddf252ad1be2c89b69c2b068fc378daa952ba7f163c4a11628f55a4df523b3ef9060200160405180910390a361097883600084612349565b6060612fdf8484600085612fe7565b949350505050565b6060824710156130485760405162461bcd60e51b815260206004820152602660248201527f416464726573733a20696e73756666696369656e742062616c616e636520666f6044820152651c8818d85b1b60d21b606482015260840161079f565b843b6130965760405162461bcd60e51b815260206004820152601d60248201527f416464726573733a2063616c6c20746f206e6f6e2d636f6e7472616374000000604482015260640161079f565b600080866001600160a01b031685876040516130b29190613724565b60006040518083038185875af1925050503d80600081146130ef576040519150601f19603f3d011682016040523d82523d6000602084013e6130f4565b606091505b509150915061310482828661310f565b979650505050505050565b6060831561311e57508161094b565b82511561312e5782518084602001fd5b8160405162461bcd60e51b815260040161079f91906131c9565b8015158114610bdf57600080fd5b60006020828403121561316857600080fd5b813561094b81613148565b60006020828403121561318557600080fd5b81356001600160e01b03198116811461094b57600080fd5b60005b838110156131b85781810151838201526020016131a0565b838111156117315750506000910152565b60208152600082518060208401526131e881604085016020870161319d565b601f01601f19169190910160400192915050565b6001600160a01b0381168114610bdf57600080fd5b6000806040838503121561322457600080fd5b823561322f816131fc565b946020939093013593505050565b60008060006060848603121561325257600080fd5b833561325d816131fc565b9250602084013561326d816131fc565b929592945050506040919091013590565b60006020828403121561329057600080fd5b5035919050565b600080604083850312156132aa57600080fd5b8235915060208301356132bc816131fc565b809150509250929050565b6000602082840312156132d957600080fd5b813561094b816131fc565b6000806000606084860312156132f957600080fd5b8335613304816131fc565b92506020840135613314816131fc565b91506040840135613324816131fc565b809150509250925092565b6000806040838503121561334257600080fd5b823561334d816131fc565b915060208301356132bc81613148565b803560ff8116811461336e57600080fd5b919050565b60008060008060008060c0878903121561338c57600080fd5b8635613397816131fc565b955060208701359450604087013593506133b36060880161335d565b92506080870135915060a087013590509295509295509295565b600080600080600080600060e0888a0312156133e857600080fd5b87356133f3816131fc565b96506020880135613403816131fc565b9550604088013594506060880135935061341f6080890161335d565b925060a0880135915060c0880135905092959891949750929550565b6000806040838503121561344e57600080fd5b8235613459816131fc565b915060208301356132bc816131fc565b6000806040838503121561347c57600080fd5b8235613487816131fc565b9150602083013563ffffffff811681146132bc57600080fd5b60208082526017908201527f496e73756666696369656e742070726976696c65676573000000000000000000604082015260600190565b600181811c908216806134eb57607f821691505b602082108114156120de57634e487b7160e01b600052602260045260246000fd5b634e487b7160e01b600052601160045260246000fd5b600082198211156135355761353561350c565b500190565b60006020828403121561354c57600080fd5b5051919050565b6000828210156135655761356561350c565b500390565b634e487b7160e01b600052603260045260246000fd5b60006020828403121561359257600080fd5b815161094b81613148565b7f416363657373436f6e74726f6c3a206163636f756e74200000000000000000008152600083516135d581601785016020880161319d565b7001034b99036b4b9b9b4b733903937b6329607d1b601791840191820152835161360681602884016020880161319d565b01602801949350505050565b600081600019048311821515161561362c5761362c61350c565b500290565b60008261364e57634e487b7160e01b600052601260045260246000fd5b500490565b634e487b7160e01b600052604160045260246000fd5b6000816136785761367861350c565b506000190190565b60006020828403121561369257600080fd5b815161094b816131fc565b600060a082018783526020878185015260a0604085015281875180845260c086019150828901935060005b818110156136ed5784516001600160a01b0316835293830193918301916001016136c8565b50506001600160a01b03969096166060850152505050608001529392505050565b634e487b7160e01b600052602160045260246000fd5b6000825161373681846020870161319d565b919091019291505056feb73fa0cb2416690a6547825d5ccf9cedab6a4cd328635df925e1dfd86cf94c21a264697066735822122091faa4542bb370a0caff6639a3c1140d19e1cbc4b249ef8c7210987ed829c0a064736f6c634300080b0033b73fa0cb2416690a6547825d5ccf9cedab6a4cd328635df925e1dfd86cf94c21dec2bacdd2f05b59de34da9b523dff8be42e5e38e818c82fdb0bae774387a724",
    "sourcePath": "/Users/sycore/Documents/proyecto_equis/rbx/products/rbxsamurai/contracts/RBXS.sol",
    "compiler": {
        "name": "solc",
        "version": "0.8.11+commit.d7f03943"
    },
    "functionHashes": {
        "AUX_ADMIN()": "2eee963b",
        "DEFAULT_ADMIN_ROLE()": "a217fddf",
        "DIVISOR()": "3410fe6e",
        "DOMAIN_SEPARATOR()": "3644e515",
        "_addPair(address,address,address)": "412131fa",
        "_routerPairs(address)": "b3f579f5",
        "allowance(address,address)": "dd62ed3e",
        "approve(address,uint256)": "095ea7b3",
        "balanceOf(address)": "70a08231",
        "blacklistAddress(address,bool)": "455a4396",
        "burn(uint256)": "42966c68",
        "burnFrom(address,uint256)": "79cc6790",
        "checkpoints(address,uint32)": "f1127ed8",
        "decimals()": "313ce567",
        "decreaseAllowance(address,uint256)": "a457c2d7",
        "delegate(address)": "5c19a95c",
        "delegateBySig(address,uint256,uint256,uint8,bytes32,bytes32)": "c3cda520",
        "delegates(address)": "587cde1e",
        "elysium()": "59a7cb79",
        "elysiumFee()": "da193d48",
        "fundingEnabled()": "e10e95c9",
        "fundingFee()": "5d16e120",
        "fundingWallet()": "3c4b40b8",
        "getPastTotalSupply(uint256)": "8e539e8c",
        "getPastVotes(address,uint256)": "3a46b1a8",
        "getRoleAdmin(bytes32)": "248a9ca3",
        "getVotes(address)": "9ab24eb0",
        "grantRole(bytes32,address)": "2f2ff15d",
        "hasRole(bytes32,address)": "91d14854",
        "increaseAllowance(address,uint256)": "39509351",
        "name()": "06fdde03",
        "nonces(address)": "7ecebe00",
        "numCheckpoints(address)": "6fcfff45",
        "permit(address,address,uint256,uint256,uint8,bytes32,bytes32)": "d505accf",
        "previousToken()": "f395af96",
        "renounceRole(bytes32,address)": "36568abe",
        "rescueEth(address)": "3b1ab44c",
        "rescueTokens(address,address,uint256)": "cea9d26f",
        "rescueTokensSafe(address,address,uint256)": "ceacd451",
        "revokeRole(bytes32,address)": "d547741f",
        "setFundingSells(bool)": "017b0a30",
        "setFundingWallet(address)": "9819d24e",
        "setTokenThreshold(uint256)": "87bde549",
        "supportsInterface(bytes4)": "01ffc9a7",
        "symbol()": "95d89b41",
        "tokenThreshold()": "66692ff0",
        "totalSupply()": "18160ddd",
        "transfer(address,uint256)": "a9059cbb",
        "transferFrom(address,address,uint256)": "23b872dd",
        "whitelistAddress(address,bool)": "b9a45aac"
    },
    "gasEstimates": {
        "creation": {
            "codeDepositCost": "2846000",
            "executionCost": "infinite",
            "totalCost": "infinite"
        },
        "external": {
            "AUX_ADMIN()": "infinite",
            "DEFAULT_ADMIN_ROLE()": "328",
            "DIVISOR()": "2429",
            "DOMAIN_SEPARATOR()": "infinite",
            "_addPair(address,address,address)": "infinite",
            "_routerPairs(address)": "6921",
            "allowance(address,address)": "infinite",
            "approve(address,uint256)": "24692",
            "balanceOf(address)": "infinite",
            "blacklistAddress(address,bool)": "infinite",
            "burn(uint256)": "infinite",
            "burnFrom(address,uint256)": "infinite",
            "checkpoints(address,uint32)": "5147",
            "decimals()": "289",
            "decreaseAllowance(address,uint256)": "27026",
            "delegate(address)": "infinite",
            "delegateBySig(address,uint256,uint256,uint8,bytes32,bytes32)": "infinite",
            "delegates(address)": "2673",
            "elysium()": "2362",
            "elysiumFee()": "2406",
            "fundingEnabled()": "2404",
            "fundingFee()": "2406",
            "fundingWallet()": "2471",
            "getPastTotalSupply(uint256)": "infinite",
            "getPastVotes(address,uint256)": "7207",
            "getRoleAdmin(bytes32)": "2490",
            "getVotes(address)": "7184",
            "grantRole(bytes32,address)": "infinite",
            "hasRole(bytes32,address)": "2698",
            "increaseAllowance(address,uint256)": "26985",
            "name()": "infinite",
            "nonces(address)": "2677",
            "numCheckpoints(address)": "2710",
            "permit(address,address,uint256,uint256,uint8,bytes32,bytes32)": "infinite",
            "previousToken()": "2469",
            "renounceRole(bytes32,address)": "29046",
            "rescueEth(address)": "infinite",
            "rescueTokens(address,address,uint256)": "infinite",
            "rescueTokensSafe(address,address,uint256)": "infinite",
            "revokeRole(bytes32,address)": "infinite",
            "setFundingSells(bool)": "infinite",
            "setFundingWallet(address)": "infinite",
            "setTokenThreshold(uint256)": "infinite",
            "supportsInterface(bytes4)": "495",
            "symbol()": "infinite",
            "tokenThreshold()": "2428",
            "totalSupply()": "2416",
            "transfer(address,uint256)": "infinite",
            "transferFrom(address,address,uint256)": "infinite",
            "whitelistAddress(address,bool)": "infinite"
        },
        "internal": {
            "_afterTokenTransfer(address,address,uint256)": "infinite",
            "_beforeTokenTransfer(address,address,uint256)": "infinite",
            "_burn(address,uint256)": "infinite",
            "_mint(address,uint256)": "infinite",
            "_setBal(address,uint256,bool)": "46557",
            "_transfer(address,address,uint256)": "infinite",
            "swapTokensByPair(uint256,address)": "infinite"
        }
    }
}